{
  "address": "0x80a60bd70Bd544c8F4D42be55BF1aDC0Fe9494a6",
  "abi": [
    {
      "inputs": [
        {
          "internalType": "uint64",
          "name": "functionsSubscriptionId",
          "type": "uint64"
        }
      ],
      "stateMutability": "nonpayable",
      "type": "constructor"
    },
    {
      "inputs": [],
      "name": "EmptyArgs",
      "type": "error"
    },
    {
      "inputs": [],
      "name": "EmptySource",
      "type": "error"
    },
    {
      "inputs": [],
      "name": "NoInlineSecrets",
      "type": "error"
    },
    {
      "inputs": [],
      "name": "OnlyRouterCanFulfill",
      "type": "error"
    },
    {
      "anonymous": false,
      "inputs": [
        {
          "indexed": true,
          "internalType": "bytes32",
          "name": "id",
          "type": "bytes32"
        }
      ],
      "name": "RequestFulfilled",
      "type": "event"
    },
    {
      "anonymous": false,
      "inputs": [
        {
          "indexed": true,
          "internalType": "bytes32",
          "name": "id",
          "type": "bytes32"
        }
      ],
      "name": "RequestSent",
      "type": "event"
    },
    {
      "anonymous": false,
      "inputs": [
        {
          "indexed": true,
          "internalType": "bytes32",
          "name": "requestId",
          "type": "bytes32"
        },
        {
          "indexed": false,
          "internalType": "string",
          "name": "data",
          "type": "string"
        },
        {
          "indexed": false,
          "internalType": "bytes",
          "name": "response",
          "type": "bytes"
        },
        {
          "indexed": false,
          "internalType": "bytes",
          "name": "err",
          "type": "bytes"
        }
      ],
      "name": "Response",
      "type": "event"
    },
    {
      "inputs": [],
      "name": "getStats",
      "outputs": [
        {
          "components": [
            {
              "internalType": "string",
              "name": "cartLineCostSum",
              "type": "string"
            },
            {
              "internalType": "string",
              "name": "productViewedCount",
              "type": "string"
            },
            {
              "internalType": "string",
              "name": "checkoutCompletedCount",
              "type": "string"
            },
            {
              "internalType": "string",
              "name": "totalTransactionAmount",
              "type": "string"
            },
            {
              "internalType": "uint256",
              "name": "timestamp",
              "type": "uint256"
            }
          ],
          "internalType": "struct CartCostFunctions.StatsStruct",
          "name": "",
          "type": "tuple"
        }
      ],
      "stateMutability": "view",
      "type": "function"
    },
    {
      "inputs": [
        {
          "internalType": "bytes32",
          "name": "requestId",
          "type": "bytes32"
        },
        {
          "internalType": "bytes",
          "name": "response",
          "type": "bytes"
        },
        {
          "internalType": "bytes",
          "name": "err",
          "type": "bytes"
        }
      ],
      "name": "handleOracleFulfillment",
      "outputs": [],
      "stateMutability": "nonpayable",
      "type": "function"
    },
    {
      "inputs": [],
      "name": "lastError",
      "outputs": [
        {
          "internalType": "bytes",
          "name": "",
          "type": "bytes"
        }
      ],
      "stateMutability": "view",
      "type": "function"
    },
    {
      "inputs": [],
      "name": "lastRequestId",
      "outputs": [
        {
          "internalType": "bytes32",
          "name": "",
          "type": "bytes32"
        }
      ],
      "stateMutability": "view",
      "type": "function"
    },
    {
      "inputs": [],
      "name": "lastResponse",
      "outputs": [
        {
          "internalType": "bytes",
          "name": "",
          "type": "bytes"
        }
      ],
      "stateMutability": "view",
      "type": "function"
    },
    {
      "inputs": [
        {
          "internalType": "uint256",
          "name": "",
          "type": "uint256"
        }
      ],
      "name": "requestIds",
      "outputs": [
        {
          "internalType": "bytes32",
          "name": "",
          "type": "bytes32"
        }
      ],
      "stateMutability": "view",
      "type": "function"
    },
    {
      "inputs": [
        {
          "internalType": "string",
          "name": "functionToCall",
          "type": "string"
        }
      ],
      "name": "requestStat",
      "outputs": [
        {
          "internalType": "bytes32",
          "name": "requestId",
          "type": "bytes32"
        }
      ],
      "stateMutability": "nonpayable",
      "type": "function"
    },
    {
      "inputs": [
        {
          "internalType": "bytes32",
          "name": "",
          "type": "bytes32"
        }
      ],
      "name": "requests",
      "outputs": [
        {
          "internalType": "bool",
          "name": "fulfilled",
          "type": "bool"
        },
        {
          "internalType": "bool",
          "name": "exists",
          "type": "bool"
        },
        {
          "internalType": "bytes",
          "name": "response",
          "type": "bytes"
        },
        {
          "internalType": "bytes",
          "name": "err",
          "type": "bytes"
        },
        {
          "internalType": "string",
          "name": "functionToCall",
          "type": "string"
        }
      ],
      "stateMutability": "view",
      "type": "function"
    },
    {
      "inputs": [],
      "name": "source",
      "outputs": [
        {
          "internalType": "string",
          "name": "",
          "type": "string"
        }
      ],
      "stateMutability": "view",
      "type": "function"
    },
    {
      "inputs": [],
      "name": "stats",
      "outputs": [
        {
          "internalType": "string",
          "name": "cartLineCostSum",
          "type": "string"
        },
        {
          "internalType": "string",
          "name": "productViewedCount",
          "type": "string"
        },
        {
          "internalType": "string",
          "name": "checkoutCompletedCount",
          "type": "string"
        },
        {
          "internalType": "string",
          "name": "totalTransactionAmount",
          "type": "string"
        },
        {
          "internalType": "uint256",
          "name": "timestamp",
          "type": "uint256"
        }
      ],
      "stateMutability": "view",
      "type": "function"
    },
    {
      "inputs": [],
      "name": "subscriptionId",
      "outputs": [
        {
          "internalType": "uint64",
          "name": "",
          "type": "uint64"
        }
      ],
      "stateMutability": "view",
      "type": "function"
    }
  ],
  "transactionHash": "0x7c6ef76db7336f8fed8cca230f564724f2ec103419de909dca12c1de2e7bd73d",
  "args": [
    "3219"
  ],
  "numDeployments": 1,
  "solcInputHash": "aa471a4ba8f08485a3d7f77f2a7ec6df",
  "bytecode": "0x600580546001600160a01b03191673b83e47c2bc239b3bf370bc41e1459a34b41238d01790557f66756e2d657468657265756d2d7365706f6c69612d31000000000000000000006006556007805463ffffffff1916620493e01790556103e060405261031460a081815290620021ff60c03960089062000080908262000196565b503480156200008e57600080fd5b506040516200251338038062002513833981016040819052620000b19162000262565b6005546001600160a01b0316608052600780546001600160401b0390921664010000000002600160201b600160601b031990921691909117905562000294565b634e487b7160e01b600052604160045260246000fd5b600181811c908216806200011c57607f821691505b6020821081036200013d57634e487b7160e01b600052602260045260246000fd5b50919050565b601f8211156200019157600081815260208120601f850160051c810160208610156200016c5750805b601f850160051c820191505b818110156200018d5782815560010162000178565b5050505b505050565b81516001600160401b03811115620001b257620001b2620000f1565b620001ca81620001c3845462000107565b8462000143565b602080601f831160018114620002025760008415620001e95750858301515b600019600386901b1c1916600185901b1785556200018d565b600085815260208120601f198616915b82811015620002335788860151825594840194600190910190840162000212565b5085821015620002525787850151600019600388901b60f8161c191681555b5050505050600190811b01905550565b6000602082840312156200027557600080fd5b81516001600160401b03811681146200028d57600080fd5b9392505050565b608051611f48620002b7600039600081816101ba01526111d70152611f486000f3fe608060405234801561001057600080fd5b50600436106100a95760003560e01c80638796ba8c116100715780638796ba8c146101205780639d866985146101415780639ff8d84f14610165578063c59d484714610178578063d80528ae1461018d578063fc2a88c3146101a657600080fd5b806309c1ba2e146100ae5780630ca76175146100e657806329f0de3f146100fb57806362747e421461011057806367e828bf14610118575b600080fd5b6007546100c99064010000000090046001600160401b031681565b6040516001600160401b0390911681526020015b60405180910390f35b6100f96100f4366004611890565b6101af565b005b610103610233565b6040516100dd9190611942565b6101036102c1565b6101036102ce565b61013361012e366004611955565b6102db565b6040519081526020016100dd565b61015461014f366004611955565b6102fc565b6040516100dd95949392919061196e565b6101336101733660046119c3565b6104ca565b610180610723565b6040516100dd9190611a13565b6101956109b9565b6040516100dd959493929190611a9f565b61013360005481565b336001600160a01b037f000000000000000000000000000000000000000000000000000000000000000016146101f85760405163c6829f8360e01b815260040160405180910390fd5b610203838383610bfb565b60405183907f85e1543bf2f84fe80c6badbce3648c8539ad1df4d2b3d822938ca0538be727e690600090a2505050565b6002805461024090611aff565b80601f016020809104026020016040519081016040528092919081815260200182805461026c90611aff565b80156102b95780601f1061028e576101008083540402835291602001916102b9565b820191906000526020600020905b81548152906001019060200180831161029c57829003601f168201915b505050505081565b6001805461024090611aff565b6008805461024090611aff565b600481815481106102eb57600080fd5b600091825260209091200154905081565b6003602052600090815260409020805460018201805460ff808416946101009094041692919061032b90611aff565b80601f016020809104026020016040519081016040528092919081815260200182805461035790611aff565b80156103a45780601f10610379576101008083540402835291602001916103a4565b820191906000526020600020905b81548152906001019060200180831161038757829003601f168201915b5050505050908060020180546103b990611aff565b80601f01602080910402602001604051908101604052809291908181526020018280546103e590611aff565b80156104325780601f1061040757610100808354040283529160200191610432565b820191906000526020600020905b81548152906001019060200180831161041557829003601f168201915b50505050509080600301805461044790611aff565b80601f016020809104026020016040519081016040528092919081815260200182805461047390611aff565b80156104c05780601f10610495576101008083540402835291602001916104c0565b820191906000526020600020905b8154815290600101906020018083116104a357829003601f168201915b5050505050905085565b604080516001808252818301909252600091829190816020015b60608152602001906001900390816104e4579050509050828160008151811061050f5761050f611b39565b602002602001018190525061055b6040805160e0810190915280600081526020016000815260200160008152602001606081526020016060815260200160608152602001606081525090565b6105f86008805461056b90611aff565b80601f016020809104026020016040519081016040528092919081815260200182805461059790611aff565b80156105e45780601f106105b9576101008083540402835291602001916105e4565b820191906000526020600020905b8154815290600101906020018083116105c757829003601f168201915b505050505082610ebf90919063ffffffff16565b6106028183610ed0565b61063261060e82610efa565b6007546006546001600160401b036401000000008304169163ffffffff16906111d2565b60008181556040805160a0810182528281526001602080830182815284518083018652868152848601908152855180840187528781526060860152608085018c905296865260039091529290932081518154935161ffff1990941690151561ff0019161761010093151593909302929092178255925190918201906106b79082611b9d565b50606082015160028201906106cc9082611b9d565b50608082015160038201906106e19082611b9d565b5050600080546004805460018101825592527f8a35acfbc15ff81a39ae7d344fd709f28e8600b4aa8c65c6b64bfe7fe36bd19b90910181905595945050505050565b6107556040518060a0016040528060608152602001606081526020016060815260200160608152602001600081525090565b60096040518060a001604052908160008201805461077290611aff565b80601f016020809104026020016040519081016040528092919081815260200182805461079e90611aff565b80156107eb5780601f106107c0576101008083540402835291602001916107eb565b820191906000526020600020905b8154815290600101906020018083116107ce57829003601f168201915b5050505050815260200160018201805461080490611aff565b80601f016020809104026020016040519081016040528092919081815260200182805461083090611aff565b801561087d5780601f106108525761010080835404028352916020019161087d565b820191906000526020600020905b81548152906001019060200180831161086057829003601f168201915b5050505050815260200160028201805461089690611aff565b80601f01602080910402602001604051908101604052809291908181526020018280546108c290611aff565b801561090f5780601f106108e45761010080835404028352916020019161090f565b820191906000526020600020905b8154815290600101906020018083116108f257829003601f168201915b5050505050815260200160038201805461092890611aff565b80601f016020809104026020016040519081016040528092919081815260200182805461095490611aff565b80156109a15780601f10610976576101008083540402835291602001916109a1565b820191906000526020600020905b81548152906001019060200180831161098457829003601f168201915b50505050508152602001600482015481525050905090565b6009805481906109c890611aff565b80601f01602080910402602001604051908101604052809291908181526020018280546109f490611aff565b8015610a415780601f10610a1657610100808354040283529160200191610a41565b820191906000526020600020905b815481529060010190602001808311610a2457829003601f168201915b505050505090806001018054610a5690611aff565b80601f0160208091040260200160405190810160405280929190818152602001828054610a8290611aff565b8015610acf5780601f10610aa457610100808354040283529160200191610acf565b820191906000526020600020905b815481529060010190602001808311610ab257829003601f168201915b505050505090806002018054610ae490611aff565b80601f0160208091040260200160405190810160405280929190818152602001828054610b1090611aff565b8015610b5d5780601f10610b3257610100808354040283529160200191610b5d565b820191906000526020600020905b815481529060010190602001808311610b4057829003601f168201915b505050505090806003018054610b7290611aff565b80601f0160208091040260200160405190810160405280929190818152602001828054610b9e90611aff565b8015610beb5780601f10610bc057610100808354040283529160200191610beb565b820191906000526020600020905b815481529060010190602001808311610bce57829003601f168201915b5050505050908060040154905085565b600083815260036020526040902054610100900460ff16610c565760405162461bcd60e51b81526020600482015260116024820152701c995c5d595cdd081b9bdd08199bdd5b99607a1b604482015260640160405180910390fd5b6002610c628282611b9d565b506001610c6f8382611b9d565b506000838152600360205260409020805460ff19166001908117825501610c968382611b9d565b506000838152600360205260409020600201610cb28282611b9d565b506000838152600360208190526040822001805484929190610cd390611aff565b80601f0160208091040260200160405190810160405280929190818152602001828054610cff90611aff565b8015610d4c5780601f10610d2157610100808354040283529160200191610d4c565b820191906000526020600020905b815481529060010190602001808311610d2f57829003601f168201915b50505050509050610d84816040518060400160405280600f81526020016e636172744c696e65436f737453756d60881b8152506112a4565b15610d9b576009610d958382611b9d565b50610e74565b610dcf81604051806040016040528060128152602001711c1c9bd91d58dd159a595dd95910dbdd5b9d60721b8152506112a4565b15610de057600a610d958382611b9d565b610e18816040518060400160405280601681526020017518da1958dadbdd5d10dbdb5c1b195d195910dbdd5b9d60521b8152506112a4565b15610e2957600b610d958382611b9d565b610e6181604051806040016040528060168152602001751d1bdd185b151c985b9cd858dd1a5bdb905b5bdd5b9d60521b8152506112a4565b15610e7457600c610e728382611b9d565b505b42600d5560405185907f160ed0aaffbef6885155188b91459cb5a97d5daadccf7561d8c46deea6641b5090610eb0908590600190600290611cd9565b60405180910390a25050505050565b610ecc82600080846112c0565b5050565b8051600003610ef25760405163fe936cb760e01b815260040160405180910390fd5b60a090910152565b60606000610f0961010061133e565b9050610f426040518060400160405280600c81526020016b31b7b232a637b1b0ba34b7b760a11b8152508261135f90919063ffffffff16565b8251610f60906002811115610f5957610f59611d1c565b829061137d565b6040805180820190915260088152676c616e677561676560c01b6020820152610f8a90829061135f565b6040830151610fa1908015610f5957610f59611d1c565b604080518082019091526006815265736f7572636560d01b6020820152610fc990829061135f565b6060830151610fd990829061135f565b60a0830151511561106d576040805180820190915260048152636172677360e01b602082015261100a90829061135f565b611013816113b6565b60005b8360a0015151811015611063576110538460a00151828151811061103c5761103c611b39565b60200260200101518361135f90919063ffffffff16565b61105c81611d48565b9050611016565b5061106d816113da565b608083015151156111315760008360200151600281111561109057611090611d1c565b036110ae5760405163a80d31f760e01b815260040160405180910390fd5b60408051808201909152600f81526e39b2b1b932ba39a637b1b0ba34b7b760891b60208201526110df90829061135f565b6110f883602001516002811115610f5957610f59611d1c565b6040805180820190915260078152667365637265747360c81b602082015261112190829061135f565b60808301516111319082906113f8565b60c083015151156111ca5760408051808201909152600981526862797465734172677360b81b602082015261116790829061135f565b611170816113b6565b60005b8360c00151518110156111c0576111b08460c00151828151811061119957611199611b39565b6020026020010151836113f890919063ffffffff16565b6111b981611d48565b9050611173565b506111ca816113da565b515192915050565b6000807f00000000000000000000000000000000000000000000000000000000000000006001600160a01b031663461d27628688600188886040518663ffffffff1660e01b815260040161122a959493929190611d61565b6020604051808303816000875af1158015611249573d6000803e3d6000fd5b505050506040513d601f19601f8201168201806040525081019061126d9190611daa565b60405190915081907f1131472297a800fee664d1d89cfa8f7676ff07189ecc53f80bbb5f4969099db890600090a295945050505050565b6000818051906020012083805190602001201490505b92915050565b80516000036112e2576040516322ce3edd60e01b815260040160405180910390fd5b838360028111156112f5576112f5611d1c565b9081600281111561130857611308611d1c565b9052506040840182801561131e5761131e611d1c565b9081801561132e5761132e611d1c565b9052506060909301929092525050565b6113466117b0565b80516113529083611405565b5060006020820152919050565b61136c826003835161147c565b8151611378908261159b565b505050565b815161138a9060c26115c3565b50610ecc82826040516020016113a291815260200190565b6040516020818303038152906040526113f8565b6113c181600461162c565b6001816020018181516113d49190611dc3565b90525050565b6113e581600761162c565b6001816020018181516113d49190611dd6565b61136c826002835161147c565b604080518082019091526060815260006020820152611425602083611de9565b1561144d57611435602083611de9565b611440906020611dd6565b61144a9083611dc3565b91505b60208084018390526040518085526000815290818401018181101561147157600080fd5b604052509192915050565b6017816001600160401b0316116114a85782516114a29060e0600585901b1683176115c3565b50505050565b60ff816001600160401b0316116114e85782516114d0906018611fe0600586901b16176115c3565b5082516114a2906001600160401b0383166001611643565b61ffff816001600160401b031611611529578251611511906019611fe0600586901b16176115c3565b5082516114a2906001600160401b0383166002611643565b63ffffffff816001600160401b03161161156c57825161155490601a611fe0600586901b16176115c3565b5082516114a2906001600160401b0383166004611643565b825161158390601b611fe0600586901b16176115c3565b5082516114a2906001600160401b0383166008611643565b6040805180820190915260608152600060208201526115bc838384516116c8565b9392505050565b60408051808201909152606081526000602082015282515160006115e8826001611dc3565b9050846020015182106116095761160985611604836002611e0b565b611799565b8451602083820101858153508051821115611622578181525b5093949350505050565b815161137890601f611fe0600585901b16176115c3565b60408051808201909152606081526000602082015283515160006116678285611dc3565b905085602001518111156116845761168486611604836002611e0b565b6000600161169486610100611f06565b61169e9190611dd6565b905086518281018783198251161781525080518311156116bc578281525b50959695505050505050565b60408051808201909152606081526000602082015282518211156116eb57600080fd5b83515160006116fa8483611dc3565b905085602001518111156117175761171786611604836002611e0b565b855180518382016020019160009180851115611731578482525b505050602086015b602086106117715780518252611750602083611dc3565b915061175d602082611dc3565b905061176a602087611dd6565b9550611739565b51815160001960208890036101000a0190811690199190911617905250849150509392505050565b81516117a58383611405565b506114a2838261159b565b60405180604001604052806117d8604051806040016040528060608152602001600081525090565b8152602001600081525090565b634e487b7160e01b600052604160045260246000fd5b60006001600160401b0380841115611815576118156117e5565b604051601f8501601f19908116603f0116810190828211818310171561183d5761183d6117e5565b8160405280935085815286868601111561185657600080fd5b858560208301376000602087830101525050509392505050565b600082601f83011261188157600080fd5b6115bc838335602085016117fb565b6000806000606084860312156118a557600080fd5b8335925060208401356001600160401b03808211156118c357600080fd5b6118cf87838801611870565b935060408601359150808211156118e557600080fd5b506118f286828701611870565b9150509250925092565b6000815180845260005b8181101561192257602081850181015186830182015201611906565b506000602082860101526020601f19601f83011685010191505092915050565b6020815260006115bc60208301846118fc565b60006020828403121561196757600080fd5b5035919050565b8515158152841515602082015260a06040820152600061199160a08301866118fc565b82810360608401526119a381866118fc565b905082810360808401526119b781856118fc565b98975050505050505050565b6000602082840312156119d557600080fd5b81356001600160401b038111156119eb57600080fd5b8201601f810184136119fc57600080fd5b611a0b848235602084016117fb565b949350505050565b602081526000825160a06020840152611a2f60c08401826118fc565b90506020840151601f1980858403016040860152611a4d83836118fc565b92506040860151915080858403016060860152611a6a83836118fc565b9250606086015191508085840301608086015250611a8882826118fc565b915050608084015160a08401528091505092915050565b60a081526000611ab260a08301886118fc565b8281036020840152611ac481886118fc565b90508281036040840152611ad881876118fc565b90508281036060840152611aec81866118fc565b9150508260808301529695505050505050565b600181811c90821680611b1357607f821691505b602082108103611b3357634e487b7160e01b600052602260045260246000fd5b50919050565b634e487b7160e01b600052603260045260246000fd5b601f82111561137857600081815260208120601f850160051c81016020861015611b765750805b601f850160051c820191505b81811015611b9557828155600101611b82565b505050505050565b81516001600160401b03811115611bb657611bb66117e5565b611bca81611bc48454611aff565b84611b4f565b602080601f831160018114611bff5760008415611be75750858301515b600019600386901b1c1916600185901b178555611b95565b600085815260208120601f198616915b82811015611c2e57888601518255948401946001909101908401611c0f565b5085821015611c4c5787850151600019600388901b60f8161c191681555b5050505050600190811b01905550565b60008154611c6981611aff565b808552602060018381168015611c865760018114611ca057611cce565b60ff1985168884015283151560051b880183019550611cce565b866000528260002060005b85811015611cc65781548a8201860152908301908401611cab565b890184019650505b505050505092915050565b606081526000611cec60608301866118fc565b8281036020840152611cfe8186611c5c565b90508281036040840152611d128185611c5c565b9695505050505050565b634e487b7160e01b600052602160045260246000fd5b634e487b7160e01b600052601160045260246000fd5b600060018201611d5a57611d5a611d32565b5060010190565b6001600160401b038616815260a060208201526000611d8360a08301876118fc565b61ffff9590951660408301525063ffffffff92909216606083015260809091015292915050565b600060208284031215611dbc57600080fd5b5051919050565b808201808211156112ba576112ba611d32565b818103818111156112ba576112ba611d32565b600082611e0657634e487b7160e01b600052601260045260246000fd5b500690565b80820281158282048414176112ba576112ba611d32565b600181815b80851115611e5d578160001904821115611e4357611e43611d32565b80851615611e5057918102915b93841c9390800290611e27565b509250929050565b600082611e74575060016112ba565b81611e81575060006112ba565b8160018114611e975760028114611ea157611ebd565b60019150506112ba565b60ff841115611eb257611eb2611d32565b50506001821b6112ba565b5060208310610133831016604e8410600b8410161715611ee0575081810a6112ba565b611eea8383611e22565b8060001904821115611efe57611efe611d32565b029392505050565b60006115bc8383611e6556fea2646970667358221220ac6d27ba095c1cf30a11416906b6231fa2bc47e74084056524398e38bc6c487164736f6c63430008130033636f6e737420617069526573706f6e7365203d2061776169742046756e6374696f6e732e6d616b654874747052657175657374287b75726c3a206068747470733a2f2f393137322d3231332d3231342d34322d34322e6e67726f6b2d667265652e6170702f7374617473602c726573706f6e7365547970653a20276a736f6e277d293b69662028617069526573706f6e73652e6572726f7229207b7468726f77204572726f72282752657175657374206661696c656427293b7d636f6e7374207b20636172744c696e65436f737453756d2c2070726f64756374566965776564436f756e742c20636865636b6f7574436f6d706c65746564436f756e742c20746f74616c5472616e73616374696f6e416d6f756e74207d203d20617069526573706f6e73652e646174613b636f6e73742066756e6374696f6e546f43616c6c203d20617267735b305d3b7377697463682866756e6374696f6e546f43616c6c29207b2020636173652027636172744c696e65436f737453756d273a2020202072657475726e2046756e6374696f6e732e656e636f6465537472696e6728636172744c696e65436f737453756d2e746f537472696e672829293b202063617365202770726f64756374566965776564436f756e74273a2020202072657475726e2046756e6374696f6e732e656e636f6465537472696e672870726f64756374566965776564436f756e742e746f537472696e672829293b2020636173652027636865636b6f7574436f6d706c65746564436f756e74273a2020202072657475726e2046756e6374696f6e732e656e636f6465537472696e6728636865636b6f7574436f6d706c65746564436f756e742e746f537472696e672829293b2020636173652027746f74616c5472616e73616374696f6e416d6f756e74273a2020202072657475726e2046756e6374696f6e732e656e636f6465537472696e6728746f74616c5472616e73616374696f6e416d6f756e742e746f537472696e672829293b202064656661756c743a202020207468726f77204572726f722827496e76616c69642066756e6374696f6e2063616c6c27293b7d",
  "devdoc": {
    "kind": "dev",
    "methods": {
      "handleOracleFulfillment(bytes32,bytes,bytes)": {
        "details": "Either response or error parameter will be set, but never both.",
        "params": {
          "err": "Aggregated error either from the request's source code or from the execution pipeline.",
          "requestId": "The requestId returned by FunctionsClient.sendRequest().",
          "response": "Aggregated response from the request's source code."
        }
      }
    },
    "version": 1
  },
  "userdoc": {
    "kind": "user",
    "methods": {
      "handleOracleFulfillment(bytes32,bytes,bytes)": {
        "notice": "Chainlink Functions response handler called by the Functions Router during fullilment from the designated transmitter node in an OCR round."
      }
    },
    "version": 1
  },
  "storageLayout": {
    "storage": [
      {
        "astId": 6493,
        "contract": "contracts/CartCostFunctions.sol:CartCostFunctions",
        "label": "lastRequestId",
        "offset": 0,
        "slot": "0",
        "type": "t_bytes32"
      },
      {
        "astId": 6495,
        "contract": "contracts/CartCostFunctions.sol:CartCostFunctions",
        "label": "lastResponse",
        "offset": 0,
        "slot": "1",
        "type": "t_bytes_storage"
      },
      {
        "astId": 6497,
        "contract": "contracts/CartCostFunctions.sol:CartCostFunctions",
        "label": "lastError",
        "offset": 0,
        "slot": "2",
        "type": "t_bytes_storage"
      },
      {
        "astId": 6513,
        "contract": "contracts/CartCostFunctions.sol:CartCostFunctions",
        "label": "requests",
        "offset": 0,
        "slot": "3",
        "type": "t_mapping(t_bytes32,t_struct(RequestStatus)6508_storage)"
      },
      {
        "astId": 6516,
        "contract": "contracts/CartCostFunctions.sol:CartCostFunctions",
        "label": "requestIds",
        "offset": 0,
        "slot": "4",
        "type": "t_array(t_bytes32)dyn_storage"
      },
      {
        "astId": 6529,
        "contract": "contracts/CartCostFunctions.sol:CartCostFunctions",
        "label": "router",
        "offset": 0,
        "slot": "5",
        "type": "t_address"
      },
      {
        "astId": 6532,
        "contract": "contracts/CartCostFunctions.sol:CartCostFunctions",
        "label": "donID",
        "offset": 0,
        "slot": "6",
        "type": "t_bytes32"
      },
      {
        "astId": 6535,
        "contract": "contracts/CartCostFunctions.sol:CartCostFunctions",
        "label": "gasLimit",
        "offset": 0,
        "slot": "7",
        "type": "t_uint32"
      },
      {
        "astId": 6537,
        "contract": "contracts/CartCostFunctions.sol:CartCostFunctions",
        "label": "subscriptionId",
        "offset": 4,
        "slot": "7",
        "type": "t_uint64"
      },
      {
        "astId": 6540,
        "contract": "contracts/CartCostFunctions.sol:CartCostFunctions",
        "label": "source",
        "offset": 0,
        "slot": "8",
        "type": "t_string_storage"
      },
      {
        "astId": 6554,
        "contract": "contracts/CartCostFunctions.sol:CartCostFunctions",
        "label": "stats",
        "offset": 0,
        "slot": "9",
        "type": "t_struct(StatsStruct)6551_storage"
      }
    ],
    "types": {
      "t_address": {
        "encoding": "inplace",
        "label": "address",
        "numberOfBytes": "20"
      },
      "t_array(t_bytes32)dyn_storage": {
        "base": "t_bytes32",
        "encoding": "dynamic_array",
        "label": "bytes32[]",
        "numberOfBytes": "32"
      },
      "t_bool": {
        "encoding": "inplace",
        "label": "bool",
        "numberOfBytes": "1"
      },
      "t_bytes32": {
        "encoding": "inplace",
        "label": "bytes32",
        "numberOfBytes": "32"
      },
      "t_bytes_storage": {
        "encoding": "bytes",
        "label": "bytes",
        "numberOfBytes": "32"
      },
      "t_mapping(t_bytes32,t_struct(RequestStatus)6508_storage)": {
        "encoding": "mapping",
        "key": "t_bytes32",
        "label": "mapping(bytes32 => struct CartCostFunctions.RequestStatus)",
        "numberOfBytes": "32",
        "value": "t_struct(RequestStatus)6508_storage"
      },
      "t_string_storage": {
        "encoding": "bytes",
        "label": "string",
        "numberOfBytes": "32"
      },
      "t_struct(RequestStatus)6508_storage": {
        "encoding": "inplace",
        "label": "struct CartCostFunctions.RequestStatus",
        "members": [
          {
            "astId": 6499,
            "contract": "contracts/CartCostFunctions.sol:CartCostFunctions",
            "label": "fulfilled",
            "offset": 0,
            "slot": "0",
            "type": "t_bool"
          },
          {
            "astId": 6501,
            "contract": "contracts/CartCostFunctions.sol:CartCostFunctions",
            "label": "exists",
            "offset": 1,
            "slot": "0",
            "type": "t_bool"
          },
          {
            "astId": 6503,
            "contract": "contracts/CartCostFunctions.sol:CartCostFunctions",
            "label": "response",
            "offset": 0,
            "slot": "1",
            "type": "t_bytes_storage"
          },
          {
            "astId": 6505,
            "contract": "contracts/CartCostFunctions.sol:CartCostFunctions",
            "label": "err",
            "offset": 0,
            "slot": "2",
            "type": "t_bytes_storage"
          },
          {
            "astId": 6507,
            "contract": "contracts/CartCostFunctions.sol:CartCostFunctions",
            "label": "functionToCall",
            "offset": 0,
            "slot": "3",
            "type": "t_string_storage"
          }
        ],
        "numberOfBytes": "128"
      },
      "t_struct(StatsStruct)6551_storage": {
        "encoding": "inplace",
        "label": "struct CartCostFunctions.StatsStruct",
        "members": [
          {
            "astId": 6542,
            "contract": "contracts/CartCostFunctions.sol:CartCostFunctions",
            "label": "cartLineCostSum",
            "offset": 0,
            "slot": "0",
            "type": "t_string_storage"
          },
          {
            "astId": 6544,
            "contract": "contracts/CartCostFunctions.sol:CartCostFunctions",
            "label": "productViewedCount",
            "offset": 0,
            "slot": "1",
            "type": "t_string_storage"
          },
          {
            "astId": 6546,
            "contract": "contracts/CartCostFunctions.sol:CartCostFunctions",
            "label": "checkoutCompletedCount",
            "offset": 0,
            "slot": "2",
            "type": "t_string_storage"
          },
          {
            "astId": 6548,
            "contract": "contracts/CartCostFunctions.sol:CartCostFunctions",
            "label": "totalTransactionAmount",
            "offset": 0,
            "slot": "3",
            "type": "t_string_storage"
          },
          {
            "astId": 6550,
            "contract": "contracts/CartCostFunctions.sol:CartCostFunctions",
            "label": "timestamp",
            "offset": 0,
            "slot": "4",
            "type": "t_uint256"
          }
        ],
        "numberOfBytes": "160"
      },
      "t_uint256": {
        "encoding": "inplace",
        "label": "uint256",
        "numberOfBytes": "32"
      },
      "t_uint32": {
        "encoding": "inplace",
        "label": "uint32",
        "numberOfBytes": "4"
      },
      "t_uint64": {
        "encoding": "inplace",
        "label": "uint64",
        "numberOfBytes": "8"
      }
    }
  }
}