{
  "address": "0xd9E61BA5B48Bd6bd4CAc077CF885018a43702217",
  "abi": [
    {
      "inputs": [
        {
          "internalType": "address",
          "name": "cartCostFunctionsAddress",
          "type": "address"
        }
      ],
      "stateMutability": "nonpayable",
      "type": "constructor"
    },
    {
      "anonymous": false,
      "inputs": [
        {
          "indexed": true,
          "internalType": "address",
          "name": "owner",
          "type": "address"
        },
        {
          "indexed": true,
          "internalType": "address",
          "name": "approved",
          "type": "address"
        },
        {
          "indexed": true,
          "internalType": "uint256",
          "name": "tokenId",
          "type": "uint256"
        }
      ],
      "name": "Approval",
      "type": "event"
    },
    {
      "anonymous": false,
      "inputs": [
        {
          "indexed": true,
          "internalType": "address",
          "name": "owner",
          "type": "address"
        },
        {
          "indexed": true,
          "internalType": "address",
          "name": "operator",
          "type": "address"
        },
        {
          "indexed": false,
          "internalType": "bool",
          "name": "approved",
          "type": "bool"
        }
      ],
      "name": "ApprovalForAll",
      "type": "event"
    },
    {
      "anonymous": false,
      "inputs": [
        {
          "indexed": true,
          "internalType": "address",
          "name": "from",
          "type": "address"
        },
        {
          "indexed": true,
          "internalType": "address",
          "name": "to",
          "type": "address"
        },
        {
          "indexed": true,
          "internalType": "uint256",
          "name": "tokenId",
          "type": "uint256"
        }
      ],
      "name": "Transfer",
      "type": "event"
    },
    {
      "inputs": [
        {
          "internalType": "address",
          "name": "to",
          "type": "address"
        },
        {
          "internalType": "uint256",
          "name": "tokenId",
          "type": "uint256"
        }
      ],
      "name": "approve",
      "outputs": [],
      "stateMutability": "nonpayable",
      "type": "function"
    },
    {
      "inputs": [
        {
          "internalType": "address",
          "name": "owner",
          "type": "address"
        }
      ],
      "name": "balanceOf",
      "outputs": [
        {
          "internalType": "uint256",
          "name": "",
          "type": "uint256"
        }
      ],
      "stateMutability": "view",
      "type": "function"
    },
    {
      "inputs": [],
      "name": "cartCostFunctions",
      "outputs": [
        {
          "internalType": "contract CartCostFunctions",
          "name": "",
          "type": "address"
        }
      ],
      "stateMutability": "view",
      "type": "function"
    },
    {
      "inputs": [],
      "name": "compareCheckoutValueWithETHPrice",
      "outputs": [
        {
          "internalType": "string",
          "name": "",
          "type": "string"
        }
      ],
      "stateMutability": "view",
      "type": "function"
    },
    {
      "inputs": [
        {
          "internalType": "uint256",
          "name": "tokenId",
          "type": "uint256"
        }
      ],
      "name": "getApproved",
      "outputs": [
        {
          "internalType": "address",
          "name": "",
          "type": "address"
        }
      ],
      "stateMutability": "view",
      "type": "function"
    },
    {
      "inputs": [],
      "name": "getChainlinkDataFeedLatestAnswer",
      "outputs": [
        {
          "internalType": "uint256",
          "name": "",
          "type": "uint256"
        }
      ],
      "stateMutability": "view",
      "type": "function"
    },
    {
      "inputs": [],
      "name": "getCumulativeCheckoutValue",
      "outputs": [
        {
          "internalType": "uint256",
          "name": "",
          "type": "uint256"
        }
      ],
      "stateMutability": "view",
      "type": "function"
    },
    {
      "inputs": [
        {
          "internalType": "address",
          "name": "owner",
          "type": "address"
        },
        {
          "internalType": "address",
          "name": "operator",
          "type": "address"
        }
      ],
      "name": "isApprovedForAll",
      "outputs": [
        {
          "internalType": "bool",
          "name": "",
          "type": "bool"
        }
      ],
      "stateMutability": "view",
      "type": "function"
    },
    {
      "inputs": [],
      "name": "name",
      "outputs": [
        {
          "internalType": "string",
          "name": "",
          "type": "string"
        }
      ],
      "stateMutability": "view",
      "type": "function"
    },
    {
      "inputs": [
        {
          "internalType": "uint256",
          "name": "tokenId",
          "type": "uint256"
        }
      ],
      "name": "ownerOf",
      "outputs": [
        {
          "internalType": "address",
          "name": "",
          "type": "address"
        }
      ],
      "stateMutability": "view",
      "type": "function"
    },
    {
      "inputs": [],
      "name": "safeMint",
      "outputs": [],
      "stateMutability": "nonpayable",
      "type": "function"
    },
    {
      "inputs": [
        {
          "internalType": "address",
          "name": "from",
          "type": "address"
        },
        {
          "internalType": "address",
          "name": "to",
          "type": "address"
        },
        {
          "internalType": "uint256",
          "name": "tokenId",
          "type": "uint256"
        }
      ],
      "name": "safeTransferFrom",
      "outputs": [],
      "stateMutability": "nonpayable",
      "type": "function"
    },
    {
      "inputs": [
        {
          "internalType": "address",
          "name": "from",
          "type": "address"
        },
        {
          "internalType": "address",
          "name": "to",
          "type": "address"
        },
        {
          "internalType": "uint256",
          "name": "tokenId",
          "type": "uint256"
        },
        {
          "internalType": "bytes",
          "name": "data",
          "type": "bytes"
        }
      ],
      "name": "safeTransferFrom",
      "outputs": [],
      "stateMutability": "nonpayable",
      "type": "function"
    },
    {
      "inputs": [
        {
          "internalType": "address",
          "name": "operator",
          "type": "address"
        },
        {
          "internalType": "bool",
          "name": "approved",
          "type": "bool"
        }
      ],
      "name": "setApprovalForAll",
      "outputs": [],
      "stateMutability": "nonpayable",
      "type": "function"
    },
    {
      "inputs": [
        {
          "internalType": "bytes4",
          "name": "interfaceId",
          "type": "bytes4"
        }
      ],
      "name": "supportsInterface",
      "outputs": [
        {
          "internalType": "bool",
          "name": "",
          "type": "bool"
        }
      ],
      "stateMutability": "view",
      "type": "function"
    },
    {
      "inputs": [],
      "name": "symbol",
      "outputs": [
        {
          "internalType": "string",
          "name": "",
          "type": "string"
        }
      ],
      "stateMutability": "view",
      "type": "function"
    },
    {
      "inputs": [
        {
          "internalType": "uint256",
          "name": "tokenId",
          "type": "uint256"
        }
      ],
      "name": "tokenURI",
      "outputs": [
        {
          "internalType": "string",
          "name": "",
          "type": "string"
        }
      ],
      "stateMutability": "view",
      "type": "function"
    },
    {
      "inputs": [
        {
          "internalType": "address",
          "name": "from",
          "type": "address"
        },
        {
          "internalType": "address",
          "name": "to",
          "type": "address"
        },
        {
          "internalType": "uint256",
          "name": "tokenId",
          "type": "uint256"
        }
      ],
      "name": "transferFrom",
      "outputs": [],
      "stateMutability": "nonpayable",
      "type": "function"
    },
    {
      "inputs": [
        {
          "internalType": "uint256",
          "name": "tokenId",
          "type": "uint256"
        }
      ],
      "name": "updateSVG",
      "outputs": [],
      "stateMutability": "nonpayable",
      "type": "function"
    }
  ],
  "transactionHash": "0xe35ea2f9e9b67a9cae12547e25257664adf2e9177f258ec94dfd984e6f469a1c",
  "args": [
    "0x80a60bd70Bd544c8F4D42be55BF1aDC0Fe9494a6"
  ],
  "numDeployments": 1,
  "solcInputHash": "9af2af49c06b63264b91cf97a05e17b8",
  "bytecode": "0x60806040523480156200001157600080fd5b506040516200379438038062003794833981016040819052620000349162000c1f565b6040518060400160405280601681526020017f42656e63686d61726b20436865636b6f75742053564700000000000000000000815250604051806040016040528060048152602001634353564760e01b815250816000908162000098919062000cf5565b506001620000a7828262000cf5565b50506008805473694aa1769357215de4fac081bf1f309adc3253066001600160a01b031991821617909155600980549091166001600160a01b03841617905550620000f1620000f8565b506200143a565b60006200010460075490565b905062000115600780546001019055565b6200012133826200012f565b6200012c8162000155565b50565b62000151828260405180602001604052806000815250620001d760201b60201c565b5050565b60006200016162000253565b905060006200019c620001748362000328565b60405160200162000186919062000de7565b60408051601f1981840301815291905262000328565b9050600081604051602001620001b3919062000edf565b60408051601f198184030181529190529050620001d184826200048c565b50505050565b620001e3838362000523565b620001f26000848484620006b4565b6200024e5760405162461bcd60e51b815260206004820152603260248201526000805160206200363183398151915260448201527131b2b4bb32b91034b6b83632b6b2b73a32b960711b60648201526084015b60405180910390fd5b505050565b606060006040518061014001604052806101038152602001620036516101039139905060006200028560024262000f3c565b15620002a15760405180602001604052806000815250620002ae565b620002ae60fa80620007fc565b90506000620002bc6200083f565b604051602001620002ce919062000f53565b60408051601f19818403018152828201825260068352651e17b9bb339f60d11b6020848101919091529151909350620003109186918691869186910162001003565b60405160208183030381529060405294505050505090565b606081516000036200034857505060408051602081019091526000815290565b60006040518060600160405280604081526020016200375460409139905060006003845160026200037a919062001078565b6200038691906200108e565b62000393906004620010a5565b6001600160401b03811115620003ad57620003ad62000c51565b6040519080825280601f01601f191660200182016040528015620003d8576020820181803683370190505b509050600182016020820185865187015b8082101562000446576003820191508151603f8160121c168501518453600184019350603f81600c1c168501518453600184019350603f8160061c168501518453600184019350603f8116850151845350600183019250620003e9565b5050600386510660018114620004655760028114620004795762000481565b603d6001830353603d600283035362000481565b603d60018303535b509195945050505050565b6000828152600260205260409020546001600160a01b0316620005095760405162461bcd60e51b815260206004820152602e60248201527f45524337323155524953746f726167653a2055524920736574206f66206e6f6e60448201526d32bc34b9ba32b73a103a37b5b2b760911b606482015260840162000245565b60008281526006602052604090206200024e828262000cf5565b6001600160a01b0382166200057b5760405162461bcd60e51b815260206004820181905260248201527f4552433732313a206d696e7420746f20746865207a65726f2061646472657373604482015260640162000245565b6000818152600260205260409020546001600160a01b031615620005e25760405162461bcd60e51b815260206004820152601c60248201527f4552433732313a20746f6b656e20616c7265616479206d696e74656400000000604482015260640162000245565b6000818152600260205260409020546001600160a01b031615620006495760405162461bcd60e51b815260206004820152601c60248201527f4552433732313a20746f6b656e20616c7265616479206d696e74656400000000604482015260640162000245565b6001600160a01b038216600081815260036020908152604080832080546001019055848352600290915280822080546001600160a01b0319168417905551839291907fddf252ad1be2c89b69c2b068fc378daa952ba7f163c4a11628f55a4df523b3ef908290a45050565b60006001600160a01b0384163b15620007f057604051630a85bd0160e11b81526001600160a01b0385169063150b7a0290620006fb903390899088908890600401620010bf565b6020604051808303816000875af192505050801562000739575060408051601f3d908101601f19168201909252620007369181019062001115565b60015b620007d5573d8080156200076a576040519150601f19603f3d011682016040523d82523d6000602084013e6200076f565b606091505b508051600003620007cd5760405162461bcd60e51b815260206004820152603260248201526000805160206200363183398151915260448201527131b2b4bb32b91034b6b83632b6b2b73a32b960711b606482015260840162000245565b805181602001fd5b6001600160e01b031916630a85bd0160e11b149050620007f4565b5060015b949350505050565b60606200080983620008ad565b6200081483620008ad565b6040516020016200082792919062001141565b60405160208183030381529060405290505b92915050565b606060006200084d62000947565b905060006200085b620009e5565b90508082116200088857604051806040016040528060048152602001633c27e62560e21b815250620008a6565b6040518060400160405280600481526020016301e13f3160e71b8152505b9250505090565b60606000620008bc8362000a62565b60010190506000816001600160401b03811115620008de57620008de62000c51565b6040519080825280601f01601f19166020018201604052801562000909576020820181803683370190505b5090508181016020015b600019016f181899199a1a9b1b9c1cb0b131b232b360811b600a86061a8153600a850494508462000913575b509392505050565b600080600960009054906101000a90046001600160a01b03166001600160a01b031663c59d48476040518163ffffffff1660e01b8152600401600060405180830381865afa1580156200099e573d6000803e3d6000fd5b505050506040513d6000823e601f3d908101601f19168201604052620009c8919081019062001284565b9050620009df816060015162000b4b60201b60201c565b91505090565b600080600860009054906101000a90046001600160a01b03166001600160a01b031663feaf968c6040518163ffffffff1660e01b815260040160a060405180830381865afa15801562000a3c573d6000803e3d6000fd5b505050506040513d601f19601f8201168201806040525081019062000481919062001397565b6000807a184f03e93ff9f4daa797ed6e38ed64bf6a1f010000000000000000831062000aac577a184f03e93ff9f4daa797ed6e38ed64bf6a1f010000000000000000830492506040015b6d04ee2d6d415b85acef8100000000831062000ad9576d04ee2d6d415b85acef8100000000830492506020015b662386f26fc10000831062000af857662386f26fc10000830492506010015b6305f5e100831062000b11576305f5e100830492506008015b612710831062000b2657612710830492506004015b6064831062000b39576064830492506002015b600a8310620008395760010192915050565b60008181805b82518110156200093f57600360fc1b83828151811062000b755762000b75620013ec565b01602001516001600160f81b0319161080159062000bba5750603960f81b83828151811062000ba85762000ba8620013ec565b01602001516001600160f81b03191611155b1562000c0a57603083828151811062000bd75762000bd7620013ec565b016020015162000beb919060f81c62001402565b60ff1662000bfb83600a620010a5565b62000c07919062001078565b91505b8062000c16816200141e565b91505062000b51565b60006020828403121562000c3257600080fd5b81516001600160a01b038116811462000c4a57600080fd5b9392505050565b634e487b7160e01b600052604160045260246000fd5b600181811c9082168062000c7c57607f821691505b60208210810362000c9d57634e487b7160e01b600052602260045260246000fd5b50919050565b601f8211156200024e57600081815260208120601f850160051c8101602086101562000ccc5750805b601f850160051c820191505b8181101562000ced5782815560010162000cd8565b505050505050565b81516001600160401b0381111562000d115762000d1162000c51565b62000d298162000d22845462000c67565b8462000ca3565b602080601f83116001811462000d61576000841562000d485750858301515b600019600386901b1c1916600185901b17855562000ced565b600085815260208120601f198616915b8281101562000d925788860151825594840194600190910190840162000d71565b508582101562000db15787850151600019600388901b60f8161c191681555b5050505050600190811b01905550565b60005b8381101562000dde57818101518382015260200162000dc4565b50506000910152565b7f7b226e616d65223a202244796e616d6963204e4654222c00000000000000000081527f226465736372697074696f6e223a202245766f6c76696e67204e46542062617360178201527f6564206f6e20636865636b6f75742073616c65732062656174696e67206c617460378201527f6573742062656e63686d61726b20455448207072696365222c0000000000000060578201527f22696d616765223a2022646174613a696d6167652f7376672b786d6c3b626173607082015263194d8d0b60e21b60908201526000825162000ec681609485016020870162000dc1565b61227d60f01b6094939091019283015250609601919050565b7f646174613a6170706c69636174696f6e2f6a736f6e3b6261736536342c00000081526000825162000f1981601d85016020870162000dc1565b91909101601d0192915050565b634e487b7160e01b600052601260045260246000fd5b60008262000f4e5762000f4e62000f26565b500690565b7f3c7465787420783d273530252720793d273530252720666f6e742d73697a653d81527f273132382720646f6d696e616e742d626173656c696e653d276d6964646c652760208201527f20746578742d616e63686f723d276d6964646c65272066696c6c3d277768697460408201526232939f60e91b60608201526000825162000fe581606385016020870162000dc1565b661e17ba32bc3a1f60c91b6063939091019283015250606a01919050565b6000855162001017818460208a0162000dc1565b8551908301906200102d818360208a0162000dc1565b85519101906200104281836020890162000dc1565b84519101906200105781836020880162000dc1565b019695505050505050565b634e487b7160e01b600052601160045260246000fd5b8082018082111562000839576200083962001062565b600082620010a057620010a062000f26565b500490565b808202811582820484141762000839576200083962001062565b600060018060a01b038087168352808616602084015250836040830152608060608301528251806080840152620010fe8160a085016020870162000dc1565b601f01601f19169190910160a00195945050505050565b6000602082840312156200112857600080fd5b81516001600160e01b03198116811462000c4a57600080fd5b6b3c636972636c652063783d2760a01b8152600083516200116a81600c85016020880162000dc1565b65272063793d2760d01b600c9184019182015283516200119281601284016020880162000dc1565b7f2720723d2732272066696c6c3d27776869746527202f3e00000000000000000060129290910191820152602901949350505050565b60405160a081016001600160401b0381118282101715620011ed57620011ed62000c51565b60405290565b600082601f8301126200120557600080fd5b81516001600160401b038082111562001222576200122262000c51565b604051601f8301601f19908116603f011681019082821181831017156200124d576200124d62000c51565b816040528381528660208588010111156200126757600080fd5b6200127a84602083016020890162000dc1565b9695505050505050565b6000602082840312156200129757600080fd5b81516001600160401b0380821115620012af57600080fd5b9083019060a08286031215620012c457600080fd5b620012ce620011c8565b825182811115620012de57600080fd5b620012ec87828601620011f3565b8252506020830151828111156200130257600080fd5b6200131087828601620011f3565b6020830152506040830151828111156200132957600080fd5b6200133787828601620011f3565b6040830152506060830151828111156200135057600080fd5b6200135e87828601620011f3565b6060830152506080830151608082015280935050505092915050565b80516001600160501b03811681146200139257600080fd5b919050565b600080600080600060a08688031215620013b057600080fd5b620013bb866200137a565b9450602086015193506040860151925060608601519150620013e0608087016200137a565b90509295509295909350565b634e487b7160e01b600052603260045260246000fd5b60ff828116828216039081111562000839576200083962001062565b60006001820162001433576200143362001062565b5060010190565b6121e7806200144a6000396000f3fe608060405234801561001057600080fd5b50600436106101215760003560e01c806370a08231116100ad578063b88d4fde11610071578063b88d4fde14610243578063bea4dfb514610256578063c87b56dd1461025e578063ca1f342414610271578063e985e9c51461028457600080fd5b806370a08231146101f75780638fa606c11461021857806395d89b4114610220578063a22cb46514610228578063ad76fc541461023b57600080fd5b806323b872dd116100f457806323b872dd146101a357806342842e0e146101b657806342945232146101c95780636352211e146101dc5780636871ee40146101ef57600080fd5b806301ffc9a71461012657806306fdde031461014e578063081812fc14610163578063095ea7b31461018e575b600080fd5b6101396101343660046115b3565b610297565b60405190151581526020015b60405180910390f35b6101566102e9565b6040516101459190611620565b610176610171366004611633565b61037b565b6040516001600160a01b039091168152602001610145565b6101a161019c366004611668565b6103a2565b005b6101a16101b1366004611692565b6104bc565b6101a16101c4366004611692565b6104ed565b6101a16101d7366004611633565b610508565b6101766101ea366004611633565b61057c565b6101a16105dc565b61020a6102053660046116ce565b61060d565b604051908152602001610145565b610156610693565b6101566106fb565b6101a16102363660046116e9565b61070a565b61020a610719565b6101a16102513660046117bd565b6107ac565b61020a6107de565b61015661026c366004611633565b610863565b600954610176906001600160a01b031681565b610139610292366004611868565b61086e565b60006001600160e01b031982166380ac58cd60e01b14806102c857506001600160e01b03198216635b5e139f60e01b145b806102e357506301ffc9a760e01b6001600160e01b03198316145b92915050565b6060600080546102f89061189b565b80601f01602080910402602001604051908101604052809291908181526020018280546103249061189b565b80156103715780601f1061034657610100808354040283529160200191610371565b820191906000526020600020905b81548152906001019060200180831161035457829003601f168201915b5050505050905090565b60006103868261089c565b506000908152600460205260409020546001600160a01b031690565b60006103ad8261057c565b9050806001600160a01b0316836001600160a01b03160361041f5760405162461bcd60e51b815260206004820152602160248201527f4552433732313a20617070726f76616c20746f2063757272656e74206f776e656044820152603960f91b60648201526084015b60405180910390fd5b336001600160a01b038216148061043b575061043b813361086e565b6104ad5760405162461bcd60e51b815260206004820152603d60248201527f4552433732313a20617070726f76652063616c6c6572206973206e6f7420746f60448201527f6b656e206f776e6572206f7220617070726f76656420666f7220616c6c0000006064820152608401610416565b6104b783836108fb565b505050565b6104c63382610969565b6104e25760405162461bcd60e51b8152600401610416906118d5565b6104b78383836109c8565b6104b7838383604051806020016040528060008152506107ac565b6000610512610b2c565b9050600061054661052283610bf4565b6040516020016105329190611922565b604051602081830303815290604052610bf4565b905060008160405160200161055b9190611a18565b60405160208183030381529060405290506105768482610d46565b50505050565b6000818152600260205260408120546001600160a01b0316806102e35760405162461bcd60e51b8152602060048201526018602482015277115490cdcc8c4e881a5b9d985b1a59081d1bdad95b88125160421b6044820152606401610416565b60006105e760075490565b90506105f7600780546001019055565b6106013382610dd9565b61060a81610508565b50565b60006001600160a01b0382166106775760405162461bcd60e51b815260206004820152602960248201527f4552433732313a2061646472657373207a65726f206973206e6f7420612076616044820152683634b21037bbb732b960b91b6064820152608401610416565b506001600160a01b031660009081526003602052604090205490565b6060600061069f610719565b905060006106ab6107de565b90508082116106d657604051806040016040528060048152602001633c27e62560e21b8152506106f4565b6040518060400160405280600481526020016301e13f3160e71b8152505b9250505090565b6060600180546102f89061189b565b610715338383610df3565b5050565b600080600960009054906101000a90046001600160a01b03166001600160a01b031663c59d48476040518163ffffffff1660e01b8152600401600060405180830381865afa15801561076f573d6000803e3d6000fd5b505050506040513d6000823e601f3d908101601f191682016040526107979190810190611aa2565b90506107a68160600151610ec1565b91505090565b6107b63383610969565b6107d25760405162461bcd60e51b8152600401610416906118d5565b61057684848484610f88565b600080600860009054906101000a90046001600160a01b03166001600160a01b031663feaf968c6040518163ffffffff1660e01b815260040160a060405180830381865afa158015610834573d6000803e3d6000fd5b505050506040513d601f19601f820116820180604052508101906108589190611ba2565b509195945050505050565b60606102e382610fbb565b6001600160a01b03918216600090815260056020908152604080832093909416825291909152205460ff1690565b6000818152600260205260409020546001600160a01b031661060a5760405162461bcd60e51b8152602060048201526018602482015277115490cdcc8c4e881a5b9d985b1a59081d1bdad95b88125160421b6044820152606401610416565b600081815260046020526040902080546001600160a01b0319166001600160a01b03841690811790915581906109308261057c565b6001600160a01b03167f8c5be1e5ebec7d5bd14f71427d1e84f3dd0314c0f7b2291e5b200ac8c7c3b92560405160405180910390a45050565b6000806109758361057c565b9050806001600160a01b0316846001600160a01b0316148061099c575061099c818561086e565b806109c05750836001600160a01b03166109b58461037b565b6001600160a01b0316145b949350505050565b826001600160a01b03166109db8261057c565b6001600160a01b031614610a015760405162461bcd60e51b815260040161041690611bf2565b6001600160a01b038216610a635760405162461bcd60e51b8152602060048201526024808201527f4552433732313a207472616e7366657220746f20746865207a65726f206164646044820152637265737360e01b6064820152608401610416565b826001600160a01b0316610a768261057c565b6001600160a01b031614610a9c5760405162461bcd60e51b815260040161041690611bf2565b600081815260046020908152604080832080546001600160a01b03199081169091556001600160a01b0387811680865260038552838620805460001901905590871680865283862080546001019055868652600290945282852080549092168417909155905184937fddf252ad1be2c89b69c2b068fc378daa952ba7f163c4a11628f55a4df523b3ef91a4505050565b60606000604051806101400160405280610103815260200161206f610103913990506000610b5b600242611c4d565b15610b755760405180602001604052806000815250610b80565b610b8060fa806110c3565b90506000610b8c610693565b604051602001610b9c9190611c61565b60408051601f19818403018152828201825260068352651e17b9bb339f60d11b6020848101919091529151909350610bdc91869186918691869101611d0f565b60405160208183030381529060405294505050505090565b60608151600003610c1357505060408051602081019091526000815290565b60006040518060600160405280604081526020016121726040913990506000600384516002610c429190611d7c565b610c4c9190611d8f565b610c57906004611da3565b67ffffffffffffffff811115610c6f57610c6f611725565b6040519080825280601f01601f191660200182016040528015610c99576020820181803683370190505b509050600182016020820185865187015b80821015610d05576003820191508151603f8160121c168501518453600184019350603f81600c1c168501518453600184019350603f8160061c168501518453600184019350603f8116850151845350600183019250610caa565b5050600386510660018114610d215760028114610d3457610858565b603d6001830353603d6002830353610858565b603d6001830353509195945050505050565b6000828152600260205260409020546001600160a01b0316610dc15760405162461bcd60e51b815260206004820152602e60248201527f45524337323155524953746f726167653a2055524920736574206f66206e6f6e60448201526d32bc34b9ba32b73a103a37b5b2b760911b6064820152608401610416565b60008281526006602052604090206104b78282611e08565b6107158282604051806020016040528060008152506110ff565b816001600160a01b0316836001600160a01b031603610e545760405162461bcd60e51b815260206004820152601960248201527f4552433732313a20617070726f766520746f2063616c6c6572000000000000006044820152606401610416565b6001600160a01b03838116600081815260056020908152604080832094871680845294825291829020805460ff191686151590811790915591519182527f17307eab39ab6107e8899845ad3d59bd9653f200f220920489ca2b5937696c31910160405180910390a3505050565b60008181805b8251811015610f8057600360fc1b838281518110610ee757610ee7611ec8565b01602001516001600160f81b03191610801590610f285750603960f81b838281518110610f1657610f16611ec8565b01602001516001600160f81b03191611155b15610f6e576030838281518110610f4157610f41611ec8565b0160200151610f53919060f81c611ede565b60ff16610f6183600a611da3565b610f6b9190611d7c565b91505b80610f7881611ef7565b915050610ec7565b509392505050565b610f938484846109c8565b610f9f84848484611132565b6105765760405162461bcd60e51b815260040161041690611f10565b6060610fc68261089c565b60008281526006602052604081208054610fdf9061189b565b80601f016020809104026020016040519081016040528092919081815260200182805461100b9061189b565b80156110585780601f1061102d57610100808354040283529160200191611058565b820191906000526020600020905b81548152906001019060200180831161103b57829003601f168201915b50505050509050600061107660408051602081019091526000815290565b90508051600003611088575092915050565b8151156110ba5780826040516020016110a2929190611f62565b60405160208183030381529060405292505050919050565b6109c084611233565b60606110ce836112a7565b6110d7836112a7565b6040516020016110e8929190611f91565b604051602081830303815290604052905092915050565b611109838361133a565b6111166000848484611132565b6104b75760405162461bcd60e51b815260040161041690611f10565b60006001600160a01b0384163b1561122857604051630a85bd0160e11b81526001600160a01b0385169063150b7a0290611176903390899088908890600401612014565b6020604051808303816000875af19250505080156111b1575060408051601f3d908101601f191682019092526111ae91810190612051565b60015b61120e573d8080156111df576040519150601f19603f3d011682016040523d82523d6000602084013e6111e4565b606091505b5080516000036112065760405162461bcd60e51b815260040161041690611f10565b805181602001fd5b6001600160e01b031916630a85bd0160e11b1490506109c0565b506001949350505050565b606061123e8261089c565b600061125560408051602081019091526000815290565b9050600081511161127557604051806020016040528060008152506112a0565b8061127f846112a7565b604051602001611290929190611f62565b6040516020818303038152906040525b9392505050565b606060006112b4836114c5565b600101905060008167ffffffffffffffff8111156112d4576112d4611725565b6040519080825280601f01601f1916602001820160405280156112fe576020820181803683370190505b5090508181016020015b600019016f181899199a1a9b1b9c1cb0b131b232b360811b600a86061a8153600a850494508461130857509392505050565b6001600160a01b0382166113905760405162461bcd60e51b815260206004820181905260248201527f4552433732313a206d696e7420746f20746865207a65726f20616464726573736044820152606401610416565b6000818152600260205260409020546001600160a01b0316156113f55760405162461bcd60e51b815260206004820152601c60248201527f4552433732313a20746f6b656e20616c7265616479206d696e746564000000006044820152606401610416565b6000818152600260205260409020546001600160a01b03161561145a5760405162461bcd60e51b815260206004820152601c60248201527f4552433732313a20746f6b656e20616c7265616479206d696e746564000000006044820152606401610416565b6001600160a01b038216600081815260036020908152604080832080546001019055848352600290915280822080546001600160a01b0319168417905551839291907fddf252ad1be2c89b69c2b068fc378daa952ba7f163c4a11628f55a4df523b3ef908290a45050565b60008072184f03e93ff9f4daa797ed6e38ed64bf6a1f0160401b83106115045772184f03e93ff9f4daa797ed6e38ed64bf6a1f0160401b830492506040015b6d04ee2d6d415b85acef81000000008310611530576d04ee2d6d415b85acef8100000000830492506020015b662386f26fc10000831061154e57662386f26fc10000830492506010015b6305f5e1008310611566576305f5e100830492506008015b612710831061157a57612710830492506004015b6064831061158c576064830492506002015b600a83106102e35760010192915050565b6001600160e01b03198116811461060a57600080fd5b6000602082840312156115c557600080fd5b81356112a08161159d565b60005b838110156115eb5781810151838201526020016115d3565b50506000910152565b6000815180845261160c8160208601602086016115d0565b601f01601f19169290920160200192915050565b6020815260006112a060208301846115f4565b60006020828403121561164557600080fd5b5035919050565b80356001600160a01b038116811461166357600080fd5b919050565b6000806040838503121561167b57600080fd5b6116848361164c565b946020939093013593505050565b6000806000606084860312156116a757600080fd5b6116b08461164c565b92506116be6020850161164c565b9150604084013590509250925092565b6000602082840312156116e057600080fd5b6112a08261164c565b600080604083850312156116fc57600080fd5b6117058361164c565b91506020830135801515811461171a57600080fd5b809150509250929050565b634e487b7160e01b600052604160045260246000fd5b60405160a0810167ffffffffffffffff8111828210171561175e5761175e611725565b60405290565b604051601f8201601f1916810167ffffffffffffffff8111828210171561178d5761178d611725565b604052919050565b600067ffffffffffffffff8211156117af576117af611725565b50601f01601f191660200190565b600080600080608085870312156117d357600080fd5b6117dc8561164c565b93506117ea6020860161164c565b925060408501359150606085013567ffffffffffffffff81111561180d57600080fd5b8501601f8101871361181e57600080fd5b803561183161182c82611795565b611764565b81815288602083850101111561184657600080fd5b8160208401602083013760006020838301015280935050505092959194509250565b6000806040838503121561187b57600080fd5b6118848361164c565b91506118926020840161164c565b90509250929050565b600181811c908216806118af57607f821691505b6020821081036118cf57634e487b7160e01b600052602260045260246000fd5b50919050565b6020808252602d908201527f4552433732313a2063616c6c6572206973206e6f7420746f6b656e206f776e6560408201526c1c881bdc88185c1c1c9bdd9959609a1b606082015260800190565b7f7b226e616d65223a202244796e616d6963204e4654222c00000000000000000081527f226465736372697074696f6e223a202245766f6c76696e67204e46542062617360178201527f6564206f6e20636865636b6f75742073616c65732062656174696e67206c617460378201527f6573742062656e63686d61726b20455448207072696365222c0000000000000060578201527f22696d616765223a2022646174613a696d6167652f7376672b786d6c3b626173607082015263194d8d0b60e21b6090820152600082516119ff8160948501602087016115d0565b61227d60f01b6094939091019283015250609601919050565b7f646174613a6170706c69636174696f6e2f6a736f6e3b6261736536342c000000815260008251611a5081601d8501602087016115d0565b91909101601d0192915050565b600082601f830112611a6e57600080fd5b8151611a7c61182c82611795565b818152846020838601011115611a9157600080fd5b6109c08260208301602087016115d0565b600060208284031215611ab457600080fd5b815167ffffffffffffffff80821115611acc57600080fd5b9083019060a08286031215611ae057600080fd5b611ae861173b565b825182811115611af757600080fd5b611b0387828601611a5d565b825250602083015182811115611b1857600080fd5b611b2487828601611a5d565b602083015250604083015182811115611b3c57600080fd5b611b4887828601611a5d565b604083015250606083015182811115611b6057600080fd5b611b6c87828601611a5d565b6060830152506080830151608082015280935050505092915050565b805169ffffffffffffffffffff8116811461166357600080fd5b600080600080600060a08688031215611bba57600080fd5b611bc386611b88565b9450602086015193506040860151925060608601519150611be660808701611b88565b90509295509295909350565b60208082526025908201527f4552433732313a207472616e736665722066726f6d20696e636f72726563742060408201526437bbb732b960d91b606082015260800190565b634e487b7160e01b600052601260045260246000fd5b600082611c5c57611c5c611c37565b500690565b7f3c7465787420783d273530252720793d273530252720666f6e742d73697a653d81527f273132382720646f6d696e616e742d626173656c696e653d276d6964646c652760208201527f20746578742d616e63686f723d276d6964646c65272066696c6c3d277768697460408201526232939f60e91b606082015260008251611cf18160638501602087016115d0565b661e17ba32bc3a1f60c91b6063939091019283015250606a01919050565b60008551611d21818460208a016115d0565b855190830190611d35818360208a016115d0565b8551910190611d488183602089016115d0565b8451910190611d5b8183602088016115d0565b019695505050505050565b634e487b7160e01b600052601160045260246000fd5b808201808211156102e3576102e3611d66565b600082611d9e57611d9e611c37565b500490565b80820281158282048414176102e3576102e3611d66565b601f8211156104b757600081815260208120601f850160051c81016020861015611de15750805b601f850160051c820191505b81811015611e0057828155600101611ded565b505050505050565b815167ffffffffffffffff811115611e2257611e22611725565b611e3681611e30845461189b565b84611dba565b602080601f831160018114611e6b5760008415611e535750858301515b600019600386901b1c1916600185901b178555611e00565b600085815260208120601f198616915b82811015611e9a57888601518255948401946001909101908401611e7b565b5085821015611eb85787850151600019600388901b60f8161c191681555b5050505050600190811b01905550565b634e487b7160e01b600052603260045260246000fd5b60ff82811682821603908111156102e3576102e3611d66565b600060018201611f0957611f09611d66565b5060010190565b60208082526032908201527f4552433732313a207472616e7366657220746f206e6f6e20455243373231526560408201527131b2b4bb32b91034b6b83632b6b2b73a32b960711b606082015260800190565b60008351611f748184602088016115d0565b835190830190611f888183602088016115d0565b01949350505050565b6b3c636972636c652063783d2760a01b815260008351611fb881600c8501602088016115d0565b65272063793d2760d01b600c918401918201528351611fde8160128401602088016115d0565b7f2720723d2732272066696c6c3d27776869746527202f3e00000000000000000060129290910191820152602901949350505050565b6001600160a01b0385811682528416602082015260408101839052608060608201819052600090612047908301846115f4565b9695505050505050565b60006020828403121561206357600080fd5b81516112a08161159d56fe3c73766720786d6c6e733d27687474703a2f2f7777772e77332e6f72672f323030302f737667272076657273696f6e3d27312e312720786d6c6e733a786c696e6b3d27687474703a2f2f7777772e77332e6f72672f313939392f786c696e6b2720786d6c6e733a7376676a733d27687474703a2f2f7376676a732e636f6d2f7376676a73272077696474683d2735303027206865696768743d2735303027207072657365727665417370656374526174696f3d276e6f6e65272076696577426f783d273020302035303020353030273e203c726563742077696474683d273130302527206865696768743d2731303025272066696c6c3d272330303030303027202f3e4142434445464748494a4b4c4d4e4f505152535455565758595a6162636465666768696a6b6c6d6e6f707172737475767778797a303132333435363738392b2fa2646970667358221220406d7745412469f71591f6dcb535b0b5ab40b7d116b3eaefd1c1f20d8d6c7cd064736f6c634300081300334552433732313a207472616e7366657220746f206e6f6e2045524337323152653c73766720786d6c6e733d27687474703a2f2f7777772e77332e6f72672f323030302f737667272076657273696f6e3d27312e312720786d6c6e733a786c696e6b3d27687474703a2f2f7777772e77332e6f72672f313939392f786c696e6b2720786d6c6e733a7376676a733d27687474703a2f2f7376676a732e636f6d2f7376676a73272077696474683d2735303027206865696768743d2735303027207072657365727665417370656374526174696f3d276e6f6e65272076696577426f783d273020302035303020353030273e203c726563742077696474683d273130302527206865696768743d2731303025272066696c6c3d272330303030303027202f3e4142434445464748494a4b4c4d4e4f505152535455565758595a6162636465666768696a6b6c6d6e6f707172737475767778797a303132333435363738392b2f",
  "devdoc": {
    "events": {
      "Approval(address,address,uint256)": {
        "details": "Emitted when `owner` enables `approved` to manage the `tokenId` token."
      },
      "ApprovalForAll(address,address,bool)": {
        "details": "Emitted when `owner` enables or disables (`approved`) `operator` to manage all of its assets."
      },
      "Transfer(address,address,uint256)": {
        "details": "Emitted when `tokenId` token is transferred from `from` to `to`."
      }
    },
    "kind": "dev",
    "methods": {
      "approve(address,uint256)": {
        "details": "See {IERC721-approve}."
      },
      "balanceOf(address)": {
        "details": "See {IERC721-balanceOf}."
      },
      "getApproved(uint256)": {
        "details": "See {IERC721-getApproved}."
      },
      "isApprovedForAll(address,address)": {
        "details": "See {IERC721-isApprovedForAll}."
      },
      "name()": {
        "details": "See {IERC721Metadata-name}."
      },
      "ownerOf(uint256)": {
        "details": "See {IERC721-ownerOf}."
      },
      "safeTransferFrom(address,address,uint256)": {
        "details": "See {IERC721-safeTransferFrom}."
      },
      "safeTransferFrom(address,address,uint256,bytes)": {
        "details": "See {IERC721-safeTransferFrom}."
      },
      "setApprovalForAll(address,bool)": {
        "details": "See {IERC721-setApprovalForAll}."
      },
      "supportsInterface(bytes4)": {
        "details": "See {IERC165-supportsInterface}."
      },
      "symbol()": {
        "details": "See {IERC721Metadata-symbol}."
      },
      "transferFrom(address,address,uint256)": {
        "details": "See {IERC721-transferFrom}."
      }
    },
    "version": 1
  },
  "userdoc": {
    "kind": "user",
    "methods": {},
    "version": 1
  },
  "storageLayout": {
    "storage": [
      {
        "astId": 2092,
        "contract": "contracts/EvolvingCheckoutSVG.sol:EvolvingCheckoutSVG",
        "label": "_name",
        "offset": 0,
        "slot": "0",
        "type": "t_string_storage"
      },
      {
        "astId": 2094,
        "contract": "contracts/EvolvingCheckoutSVG.sol:EvolvingCheckoutSVG",
        "label": "_symbol",
        "offset": 0,
        "slot": "1",
        "type": "t_string_storage"
      },
      {
        "astId": 2098,
        "contract": "contracts/EvolvingCheckoutSVG.sol:EvolvingCheckoutSVG",
        "label": "_owners",
        "offset": 0,
        "slot": "2",
        "type": "t_mapping(t_uint256,t_address)"
      },
      {
        "astId": 2102,
        "contract": "contracts/EvolvingCheckoutSVG.sol:EvolvingCheckoutSVG",
        "label": "_balances",
        "offset": 0,
        "slot": "3",
        "type": "t_mapping(t_address,t_uint256)"
      },
      {
        "astId": 2106,
        "contract": "contracts/EvolvingCheckoutSVG.sol:EvolvingCheckoutSVG",
        "label": "_tokenApprovals",
        "offset": 0,
        "slot": "4",
        "type": "t_mapping(t_uint256,t_address)"
      },
      {
        "astId": 2112,
        "contract": "contracts/EvolvingCheckoutSVG.sol:EvolvingCheckoutSVG",
        "label": "_operatorApprovals",
        "offset": 0,
        "slot": "5",
        "type": "t_mapping(t_address,t_mapping(t_address,t_bool))"
      },
      {
        "astId": 3140,
        "contract": "contracts/EvolvingCheckoutSVG.sol:EvolvingCheckoutSVG",
        "label": "_tokenURIs",
        "offset": 0,
        "slot": "6",
        "type": "t_mapping(t_uint256,t_string_storage)"
      },
      {
        "astId": 5215,
        "contract": "contracts/EvolvingCheckoutSVG.sol:EvolvingCheckoutSVG",
        "label": "tokenIdCounter",
        "offset": 0,
        "slot": "7",
        "type": "t_struct(Counter)3684_storage"
      },
      {
        "astId": 5218,
        "contract": "contracts/EvolvingCheckoutSVG.sol:EvolvingCheckoutSVG",
        "label": "priceFeed",
        "offset": 0,
        "slot": "8",
        "type": "t_contract(AggregatorV3Interface)4874"
      },
      {
        "astId": 5221,
        "contract": "contracts/EvolvingCheckoutSVG.sol:EvolvingCheckoutSVG",
        "label": "cartCostFunctions",
        "offset": 0,
        "slot": "9",
        "type": "t_contract(CartCostFunctions)5194"
      }
    ],
    "types": {
      "t_address": {
        "encoding": "inplace",
        "label": "address",
        "numberOfBytes": "20"
      },
      "t_bool": {
        "encoding": "inplace",
        "label": "bool",
        "numberOfBytes": "1"
      },
      "t_contract(AggregatorV3Interface)4874": {
        "encoding": "inplace",
        "label": "contract AggregatorV3Interface",
        "numberOfBytes": "20"
      },
      "t_contract(CartCostFunctions)5194": {
        "encoding": "inplace",
        "label": "contract CartCostFunctions",
        "numberOfBytes": "20"
      },
      "t_mapping(t_address,t_bool)": {
        "encoding": "mapping",
        "key": "t_address",
        "label": "mapping(address => bool)",
        "numberOfBytes": "32",
        "value": "t_bool"
      },
      "t_mapping(t_address,t_mapping(t_address,t_bool))": {
        "encoding": "mapping",
        "key": "t_address",
        "label": "mapping(address => mapping(address => bool))",
        "numberOfBytes": "32",
        "value": "t_mapping(t_address,t_bool)"
      },
      "t_mapping(t_address,t_uint256)": {
        "encoding": "mapping",
        "key": "t_address",
        "label": "mapping(address => uint256)",
        "numberOfBytes": "32",
        "value": "t_uint256"
      },
      "t_mapping(t_uint256,t_address)": {
        "encoding": "mapping",
        "key": "t_uint256",
        "label": "mapping(uint256 => address)",
        "numberOfBytes": "32",
        "value": "t_address"
      },
      "t_mapping(t_uint256,t_string_storage)": {
        "encoding": "mapping",
        "key": "t_uint256",
        "label": "mapping(uint256 => string)",
        "numberOfBytes": "32",
        "value": "t_string_storage"
      },
      "t_string_storage": {
        "encoding": "bytes",
        "label": "string",
        "numberOfBytes": "32"
      },
      "t_struct(Counter)3684_storage": {
        "encoding": "inplace",
        "label": "struct Counters.Counter",
        "members": [
          {
            "astId": 3683,
            "contract": "contracts/EvolvingCheckoutSVG.sol:EvolvingCheckoutSVG",
            "label": "_value",
            "offset": 0,
            "slot": "0",
            "type": "t_uint256"
          }
        ],
        "numberOfBytes": "32"
      },
      "t_uint256": {
        "encoding": "inplace",
        "label": "uint256",
        "numberOfBytes": "32"
      }
    }
  }
}