{
  "address": "0x811efA16Fb85644F95923e70787e093808B04dA8",
  "abi": [
    {
      "inputs": [],
      "stateMutability": "nonpayable",
      "type": "constructor"
    },
    {
      "anonymous": false,
      "inputs": [
        {
          "indexed": true,
          "internalType": "address",
          "name": "owner",
          "type": "address"
        },
        {
          "indexed": true,
          "internalType": "address",
          "name": "approved",
          "type": "address"
        },
        {
          "indexed": true,
          "internalType": "uint256",
          "name": "tokenId",
          "type": "uint256"
        }
      ],
      "name": "Approval",
      "type": "event"
    },
    {
      "anonymous": false,
      "inputs": [
        {
          "indexed": true,
          "internalType": "address",
          "name": "owner",
          "type": "address"
        },
        {
          "indexed": true,
          "internalType": "address",
          "name": "operator",
          "type": "address"
        },
        {
          "indexed": false,
          "internalType": "bool",
          "name": "approved",
          "type": "bool"
        }
      ],
      "name": "ApprovalForAll",
      "type": "event"
    },
    {
      "anonymous": false,
      "inputs": [
        {
          "indexed": true,
          "internalType": "address",
          "name": "from",
          "type": "address"
        },
        {
          "indexed": true,
          "internalType": "address",
          "name": "to",
          "type": "address"
        },
        {
          "indexed": true,
          "internalType": "uint256",
          "name": "tokenId",
          "type": "uint256"
        }
      ],
      "name": "Transfer",
      "type": "event"
    },
    {
      "inputs": [],
      "name": "actualColor",
      "outputs": [
        {
          "internalType": "uint8",
          "name": "",
          "type": "uint8"
        }
      ],
      "stateMutability": "view",
      "type": "function"
    },
    {
      "inputs": [
        {
          "internalType": "address",
          "name": "to",
          "type": "address"
        },
        {
          "internalType": "uint256",
          "name": "tokenId",
          "type": "uint256"
        }
      ],
      "name": "approve",
      "outputs": [],
      "stateMutability": "nonpayable",
      "type": "function"
    },
    {
      "inputs": [
        {
          "internalType": "address",
          "name": "owner",
          "type": "address"
        }
      ],
      "name": "balanceOf",
      "outputs": [
        {
          "internalType": "uint256",
          "name": "",
          "type": "uint256"
        }
      ],
      "stateMutability": "view",
      "type": "function"
    },
    {
      "inputs": [
        {
          "internalType": "uint256",
          "name": "",
          "type": "uint256"
        }
      ],
      "name": "colors",
      "outputs": [
        {
          "internalType": "string",
          "name": "",
          "type": "string"
        }
      ],
      "stateMutability": "view",
      "type": "function"
    },
    {
      "inputs": [],
      "name": "comparePrice",
      "outputs": [
        {
          "internalType": "string",
          "name": "",
          "type": "string"
        }
      ],
      "stateMutability": "nonpayable",
      "type": "function"
    },
    {
      "inputs": [
        {
          "internalType": "uint256",
          "name": "tokenId",
          "type": "uint256"
        }
      ],
      "name": "getApproved",
      "outputs": [
        {
          "internalType": "address",
          "name": "",
          "type": "address"
        }
      ],
      "stateMutability": "view",
      "type": "function"
    },
    {
      "inputs": [],
      "name": "getChainlinkDataFeedLatestAnswer",
      "outputs": [
        {
          "internalType": "uint256",
          "name": "",
          "type": "uint256"
        }
      ],
      "stateMutability": "view",
      "type": "function"
    },
    {
      "inputs": [
        {
          "internalType": "address",
          "name": "owner",
          "type": "address"
        },
        {
          "internalType": "address",
          "name": "operator",
          "type": "address"
        }
      ],
      "name": "isApprovedForAll",
      "outputs": [
        {
          "internalType": "bool",
          "name": "",
          "type": "bool"
        }
      ],
      "stateMutability": "view",
      "type": "function"
    },
    {
      "inputs": [],
      "name": "lastPrice",
      "outputs": [
        {
          "internalType": "uint256",
          "name": "",
          "type": "uint256"
        }
      ],
      "stateMutability": "view",
      "type": "function"
    },
    {
      "inputs": [],
      "name": "name",
      "outputs": [
        {
          "internalType": "string",
          "name": "",
          "type": "string"
        }
      ],
      "stateMutability": "view",
      "type": "function"
    },
    {
      "inputs": [
        {
          "internalType": "uint256",
          "name": "tokenId",
          "type": "uint256"
        }
      ],
      "name": "ownerOf",
      "outputs": [
        {
          "internalType": "address",
          "name": "",
          "type": "address"
        }
      ],
      "stateMutability": "view",
      "type": "function"
    },
    {
      "inputs": [],
      "name": "priceIndicator",
      "outputs": [
        {
          "internalType": "string",
          "name": "",
          "type": "string"
        }
      ],
      "stateMutability": "view",
      "type": "function"
    },
    {
      "inputs": [],
      "name": "safeMint",
      "outputs": [],
      "stateMutability": "nonpayable",
      "type": "function"
    },
    {
      "inputs": [
        {
          "internalType": "address",
          "name": "from",
          "type": "address"
        },
        {
          "internalType": "address",
          "name": "to",
          "type": "address"
        },
        {
          "internalType": "uint256",
          "name": "tokenId",
          "type": "uint256"
        }
      ],
      "name": "safeTransferFrom",
      "outputs": [],
      "stateMutability": "nonpayable",
      "type": "function"
    },
    {
      "inputs": [
        {
          "internalType": "address",
          "name": "from",
          "type": "address"
        },
        {
          "internalType": "address",
          "name": "to",
          "type": "address"
        },
        {
          "internalType": "uint256",
          "name": "tokenId",
          "type": "uint256"
        },
        {
          "internalType": "bytes",
          "name": "data",
          "type": "bytes"
        }
      ],
      "name": "safeTransferFrom",
      "outputs": [],
      "stateMutability": "nonpayable",
      "type": "function"
    },
    {
      "inputs": [
        {
          "internalType": "address",
          "name": "operator",
          "type": "address"
        },
        {
          "internalType": "bool",
          "name": "approved",
          "type": "bool"
        }
      ],
      "name": "setApprovalForAll",
      "outputs": [],
      "stateMutability": "nonpayable",
      "type": "function"
    },
    {
      "inputs": [
        {
          "internalType": "bytes4",
          "name": "interfaceId",
          "type": "bytes4"
        }
      ],
      "name": "supportsInterface",
      "outputs": [
        {
          "internalType": "bool",
          "name": "",
          "type": "bool"
        }
      ],
      "stateMutability": "view",
      "type": "function"
    },
    {
      "inputs": [],
      "name": "symbol",
      "outputs": [
        {
          "internalType": "string",
          "name": "",
          "type": "string"
        }
      ],
      "stateMutability": "view",
      "type": "function"
    },
    {
      "inputs": [],
      "name": "tokenIdCounter",
      "outputs": [
        {
          "internalType": "uint256",
          "name": "_value",
          "type": "uint256"
        }
      ],
      "stateMutability": "view",
      "type": "function"
    },
    {
      "inputs": [
        {
          "internalType": "uint256",
          "name": "tokenId",
          "type": "uint256"
        }
      ],
      "name": "tokenURI",
      "outputs": [
        {
          "internalType": "string",
          "name": "",
          "type": "string"
        }
      ],
      "stateMutability": "view",
      "type": "function"
    },
    {
      "inputs": [
        {
          "internalType": "address",
          "name": "from",
          "type": "address"
        },
        {
          "internalType": "address",
          "name": "to",
          "type": "address"
        },
        {
          "internalType": "uint256",
          "name": "tokenId",
          "type": "uint256"
        }
      ],
      "name": "transferFrom",
      "outputs": [],
      "stateMutability": "nonpayable",
      "type": "function"
    },
    {
      "inputs": [
        {
          "internalType": "uint256",
          "name": "tokenId",
          "type": "uint256"
        }
      ],
      "name": "updateSVG",
      "outputs": [],
      "stateMutability": "nonpayable",
      "type": "function"
    }
  ],
  "transactionHash": "0xe8ca5121d6774e513d3807a62f7d1327fc851eb314b326a11510be2a02367704",
  "args": [],
  "numDeployments": 1,
  "solcInputHash": "1a9b7ac14eb22a95535b8844fe906be9",
  "bytecode": "0x600060095560c0604052600460809081526301e13f3160e71b60a052600a906200002a908262000c87565b506040805180820190915260048152633c27e62560e21b6020820152600b9062000055908262000c87565b50604080518082019091526004815263f09f989160e01b6020820152600c9062000080908262000c87565b506040805161012081018252600660e082018181526506666303030360d41b6101008401528252825180840184528181526506666666630360d41b60208281019190915280840191909152835180850185528281526503030666630360d41b81830181905284860191909152845180860186528381526518181818333360d11b81840152606085015284518086018652838152808301919091526080840152835180850185528281526503830383038360d41b8183015260a084015283518085019094529083526533331818333360d11b9083015260c08101919091526200016d90600e90600762000b15565b50600f80546001600160a81b03191674694aa1769357215de4fac081bf1f309adc32530600179055348015620001a257600080fd5b506040518060400160405280600e81526020016d507269636520466565642053564760901b81525060405180604001604052806005815260200164706653564760d81b8152508160009081620001f9919062000c87565b50600162000208828262000c87565b5050600f54600880546101009092046001600160a01b03166001600160a01b0319909216919091179055506200023d62000243565b620013e4565b60006200024f60075490565b905062000260600780546001019055565b6200026c33826200027a565b6200027781620002a0565b50565b6200029c8282604051806020016040528060008152506200032260201b60201c565b5050565b6000620002ac6200039e565b90506000620002e7620002bf83620004ca565b604051602001620002d1919062000d79565b60408051601f19818403018152919052620004ca565b9050600081604051602001620002fe919062000e3e565b60408051601f1981840301815291905290506200031c84826200062e565b50505050565b6200032e8383620006c5565b6200033d600084848462000856565b620003995760405162461bcd60e51b815260206004820152603260248201526000805160206200355083398151915260448201527131b2b4bb32b91034b6b83632b6b2b73a32b960711b60648201526084015b60405180910390fd5b505050565b600f54606090620003b49060ff16600162000e9b565b600f805460ff191660ff929092169182179055600e549003620003dc57600f805460ff191690555b600f54600e805460009260ff16908110620003fb57620003fb62000ebd565b9060005260206000200160405160200162000417919062000ed3565b60405160208183030381529060405290506000816040516020016200043d919062000f61565b60408051601f19818403018152919052905060006200045b6200099e565b6040516020016200046d9190620010c0565b60408051601f19818403018152828201825260068352651e17b9bb339f60d11b6020848101919091529151909350600091620004b0918691869186910162001164565b60408051601f198184030181529190529695505050505050565b60608151600003620004ea57505060408051602081019091526000815290565b60006040518060600160405280604081526020016200357060409139905060006003845160026200051c9190620011ad565b620005289190620011c3565b62000535906004620011e6565b6001600160401b038111156200054f576200054f62000be3565b6040519080825280601f01601f1916602001820160405280156200057a576020820181803683370190505b509050600182016020820185865187015b80821015620005e8576003820191508151603f8160121c168501518453600184019350603f81600c1c168501518453600184019350603f8160061c168501518453600184019350603f81168501518453506001830192506200058b565b50506003865106600181146200060757600281146200061b5762000623565b603d6001830353603d600283035362000623565b603d60018303535b509195945050505050565b6000828152600260205260409020546001600160a01b0316620006ab5760405162461bcd60e51b815260206004820152602e60248201527f45524337323155524953746f726167653a2055524920736574206f66206e6f6e60448201526d32bc34b9ba32b73a103a37b5b2b760911b606482015260840162000390565b600082815260066020526040902062000399828262000c87565b6001600160a01b0382166200071d5760405162461bcd60e51b815260206004820181905260248201527f4552433732313a206d696e7420746f20746865207a65726f2061646472657373604482015260640162000390565b6000818152600260205260409020546001600160a01b031615620007845760405162461bcd60e51b815260206004820152601c60248201527f4552433732313a20746f6b656e20616c7265616479206d696e74656400000000604482015260640162000390565b6000818152600260205260409020546001600160a01b031615620007eb5760405162461bcd60e51b815260206004820152601c60248201527f4552433732313a20746f6b656e20616c7265616479206d696e74656400000000604482015260640162000390565b6001600160a01b038216600081815260036020908152604080832080546001019055848352600290915280822080546001600160a01b0319168417905551839291907fddf252ad1be2c89b69c2b068fc378daa952ba7f163c4a11628f55a4df523b3ef908290a45050565b60006001600160a01b0384163b156200099257604051630a85bd0160e11b81526001600160a01b0385169063150b7a02906200089d90339089908890889060040162001200565b6020604051808303816000875af1925050508015620008db575060408051601f3d908101601f19168201909252620008d89181019062001256565b60015b62000977573d8080156200090c576040519150601f19603f3d011682016040523d82523d6000602084013e62000911565b606091505b5080516000036200096f5760405162461bcd60e51b815260206004820152603260248201526000805160206200355083398151915260448201527131b2b4bb32b91034b6b83632b6b2b73a32b960711b606482015260840162000390565b805181602001fd5b6001600160e01b031916630a85bd0160e11b14905062000996565b5060015b949350505050565b60606000620009ac62000a98565b9050600954811115620009cf57600d620009c8600a8262001289565b50620009fa565b600954811015620009e957600d620009c8600b8262001289565b600d620009f8600c8262001289565b505b6009819055600d805462000a0e9062000bf9565b80601f016020809104026020016040519081016040528092919081815260200182805462000a3c9062000bf9565b801562000a8d5780601f1062000a615761010080835404028352916020019162000a8d565b820191906000526020600020905b81548152906001019060200180831162000a6f57829003601f168201915b505050505091505090565b600080600860009054906101000a90046001600160a01b03166001600160a01b031663feaf968c6040518163ffffffff1660e01b815260040160a060405180830381865afa15801562000aef573d6000803e3d6000fd5b505050506040513d601f19601f820116820180604052508101906200062391906200138f565b82805482825590600052602060002090810192821562000b60579160200282015b8281111562000b60578251829062000b4f908262000c87565b509160200191906001019062000b36565b5062000b6e92915062000b72565b5090565b8082111562000b6e57600062000b89828262000b93565b5060010162000b72565b50805462000ba19062000bf9565b6000825580601f1062000bb2575050565b601f0160209004906000526020600020908101906200027791905b8082111562000b6e576000815560010162000bcd565b634e487b7160e01b600052604160045260246000fd5b600181811c9082168062000c0e57607f821691505b60208210810362000c2f57634e487b7160e01b600052602260045260246000fd5b50919050565b601f8211156200039957600081815260208120601f850160051c8101602086101562000c5e5750805b601f850160051c820191505b8181101562000c7f5782815560010162000c6a565b505050505050565b81516001600160401b0381111562000ca35762000ca362000be3565b62000cbb8162000cb4845462000bf9565b8462000c35565b602080601f83116001811462000cf3576000841562000cda5750858301515b600019600386901b1c1916600185901b17855562000c7f565b600085815260208120601f198616915b8281101562000d245788860151825594840194600190910190840162000d03565b508582101562000d435787850151600019600388901b60f8161c191681555b5050505050600190811b01905550565b60005b8381101562000d7057818101518382015260200162000d56565b50506000910152565b7f7b226e616d65223a20225072696365204665656420535647222c00000000000081527f226465736372697074696f6e223a2022535647204e465473206261736564206f601a8201526e1b88185cdcd95d081c1c9a58d9488b608a1b603a8201527f22696d616765223a2022646174613a696d6167652f7376672b786d6c3b626173604982015263194d8d0b60e21b6069820152815160009062000e2581606d85016020870162000d53565b61227d60f01b606d939091019283015250606f01919050565b7f646174613a6170706c69636174696f6e2f6a736f6e3b6261736536342c00000081526000825162000e7881601d85016020870162000d53565b91909101601d0192915050565b634e487b7160e01b600052601160045260246000fd5b60ff818116838216019081111562000eb75762000eb762000e85565b92915050565b634e487b7160e01b600052603260045260246000fd5b602360f81b8152600060016000845462000eed8162000bf9565b818416801562000f06576001811462000f205762000f55565b60ff19831687860152811515820287018501935062000f55565b8760005260208060002060005b8481101562000f4a5781548a820189015290870190820162000f2d565b505050848288010193505b50919695505050505050565b7f3c73766720786d6c6e733d27687474703a2f2f7777772e77332e6f72672f323081527f30302f737667272076657273696f6e3d27312e312720786d6c6e733a786c696e60208201527f6b3d27687474703a2f2f7777772e77332e6f72672f313939392f786c696e6b2760408201527f20786d6c6e733a7376676a733d27687474703a2f2f7376676a732e636f6d2f7360608201527f76676a73272077696474683d2735303027206865696768743d2735303027207060808201527f72657365727665417370656374526174696f3d276e6f6e65272076696577426f60a08201527f783d273020302035303020353030273e203c726563742077696474683d27313060c08201527f302527206865696768743d2731303025272066696c6c3d27000000000000000060e082015260008251620010a58160f885016020870162000d53565b631390179f60e11b60f893909101928301525060fc01919050565b7f3c7465787420783d273530252720793d273530252720666f6e742d73697a653d81527f273132382720646f6d696e616e742d626173656c696e653d276d6964646c652760208201527f20746578742d616e63686f723d276d6964646c65273e000000000000000000006040820152600082516200114681605685016020870162000d53565b661e17ba32bc3a1f60c91b6056939091019283015250605d01919050565b600084516200117881846020890162000d53565b8451908301906200118e81836020890162000d53565b8451910190620011a381836020880162000d53565b0195945050505050565b8082018082111562000eb75762000eb762000e85565b600082620011e157634e487b7160e01b600052601260045260246000fd5b500490565b808202811582820484141762000eb75762000eb762000e85565b600060018060a01b0380871683528086166020840152508360408301526080606083015282518060808401526200123f8160a085016020870162000d53565b601f01601f19169190910160a00195945050505050565b6000602082840312156200126957600080fd5b81516001600160e01b0319811681146200128257600080fd5b9392505050565b81810362001295575050565b620012a1825462000bf9565b6001600160401b03811115620012bb57620012bb62000be3565b620012cc8162000cb4845462000bf9565b6000601f821160018114620013035760008315620012ea5750848201545b600019600385901b1c1916600184901b1784556200136b565b600085815260209020601f19841690600086815260209020845b838110156200133f57828601548255600195860195909101906020016200131d565b50858310156200135e5781850154600019600388901b60f8161c191681555b50505060018360011b0184555b5050505050565b80516001600160501b03811681146200138a57600080fd5b919050565b600080600080600060a08688031215620013a857600080fd5b620013b38662001372565b9450602086015193506040860151925060608601519150620013d86080870162001372565b90509295509295909350565b61215c80620013f46000396000f3fe608060405234801561001057600080fd5b50600436106101425760003560e01c80636871ee40116100b8578063a22cb4651161007c578063a22cb46514610283578063b88d4fde14610296578063bd11f69d146102a9578063bea4dfb5146102bc578063c87b56dd146102c4578063e985e9c5146102d757600080fd5b80636871ee401461024e57806370a082311461025657806375a86a691461026957806395d89b411461027157806398bdf6f51461027957600080fd5b806323b872dd1161010a57806323b872dd146101db5780632f728e1d146101ee57806342842e0e1461020d5780634294523214610220578063626a86b2146102335780636352211e1461023b57600080fd5b806301ffc9a714610147578063053f14da1461016f57806306fdde0314610186578063081812fc1461019b578063095ea7b3146101c6575b600080fd5b61015a6101553660046115fb565b6102ea565b60405190151581526020015b60405180910390f35b61017860095481565b604051908152602001610166565b61018e61033c565b6040516101669190611668565b6101ae6101a936600461167b565b6103ce565b6040516001600160a01b039091168152602001610166565b6101d96101d43660046116b0565b6103f5565b005b6101d96101e93660046116da565b61050f565b600f546101fb9060ff1681565b60405160ff9091168152602001610166565b6101d961021b3660046116da565b610540565b6101d961022e36600461167b565b61055b565b61018e6105cf565b6101ae61024936600461167b565b6106b6565b6101d9610716565b610178610264366004611716565b610747565b61018e6107cd565b61018e61085b565b6007546101789081565b6101d9610291366004611731565b61086a565b6101d96102a4366004611783565b610879565b61018e6102b736600461167b565b6108ab565b6101786108d6565b61018e6102d236600461167b565b61095b565b61015a6102e536600461185f565b610966565b60006001600160e01b031982166380ac58cd60e01b148061031b57506001600160e01b03198216635b5e139f60e01b145b8061033657506301ffc9a760e01b6001600160e01b03198316145b92915050565b60606000805461034b90611892565b80601f016020809104026020016040519081016040528092919081815260200182805461037790611892565b80156103c45780601f10610399576101008083540402835291602001916103c4565b820191906000526020600020905b8154815290600101906020018083116103a757829003601f168201915b5050505050905090565b60006103d982610994565b506000908152600460205260409020546001600160a01b031690565b6000610400826106b6565b9050806001600160a01b0316836001600160a01b0316036104725760405162461bcd60e51b815260206004820152602160248201527f4552433732313a20617070726f76616c20746f2063757272656e74206f776e656044820152603960f91b60648201526084015b60405180910390fd5b336001600160a01b038216148061048e575061048e8133610966565b6105005760405162461bcd60e51b815260206004820152603d60248201527f4552433732313a20617070726f76652063616c6c6572206973206e6f7420746f60448201527f6b656e206f776e6572206f7220617070726f76656420666f7220616c6c0000006064820152608401610469565b61050a83836109f3565b505050565b6105193382610a61565b6105355760405162461bcd60e51b8152600401610469906118cc565b61050a838383610ac0565b61050a83838360405180602001604052806000815250610879565b6000610565610c24565b9050600061059961057583610d3f565b6040516020016105859190611919565b604051602081830303815290604052610d3f565b90506000816040516020016105ae91906119dc565b60405160208183030381529060405290506105c98482610e91565b50505050565b606060006105db6108d6565b90506009548111156105fa57600d6105f4600a82611a6f565b50610620565b60095481101561061157600d6105f4600b82611a6f565b600d61061e600c82611a6f565b505b6009819055600d805461063290611892565b80601f016020809104026020016040519081016040528092919081815260200182805461065e90611892565b80156106ab5780601f10610680576101008083540402835291602001916106ab565b820191906000526020600020905b81548152906001019060200180831161068e57829003601f168201915b505050505091505090565b6000818152600260205260408120546001600160a01b0316806103365760405162461bcd60e51b8152602060048201526018602482015277115490cdcc8c4e881a5b9d985b1a59081d1bdad95b88125160421b6044820152606401610469565b600061072160075490565b9050610731600780546001019055565b61073b3382610f24565b6107448161055b565b50565b60006001600160a01b0382166107b15760405162461bcd60e51b815260206004820152602960248201527f4552433732313a2061646472657373207a65726f206973206e6f7420612076616044820152683634b21037bbb732b960b91b6064820152608401610469565b506001600160a01b031660009081526003602052604090205490565b600d80546107da90611892565b80601f016020809104026020016040519081016040528092919081815260200182805461080690611892565b80156108535780601f1061082857610100808354040283529160200191610853565b820191906000526020600020905b81548152906001019060200180831161083657829003601f168201915b505050505081565b60606001805461034b90611892565b610875338383610f3e565b5050565b6108833383610a61565b61089f5760405162461bcd60e51b8152600401610469906118cc565b6105c98484848461100c565b600e81815481106108bb57600080fd5b9060005260206000200160009150905080546107da90611892565b600080600860009054906101000a90046001600160a01b03166001600160a01b031663feaf968c6040518163ffffffff1660e01b815260040160a060405180830381865afa15801561092c573d6000803e3d6000fd5b505050506040513d601f19601f820116820180604052508101906109509190611b6a565b509195945050505050565b60606103368261103f565b6001600160a01b03918216600090815260056020908152604080832093909416825291909152205460ff1690565b6000818152600260205260409020546001600160a01b03166107445760405162461bcd60e51b8152602060048201526018602482015277115490cdcc8c4e881a5b9d985b1a59081d1bdad95b88125160421b6044820152606401610469565b600081815260046020526040902080546001600160a01b0319166001600160a01b0384169081179091558190610a28826106b6565b6001600160a01b03167f8c5be1e5ebec7d5bd14f71427d1e84f3dd0314c0f7b2291e5b200ac8c7c3b92560405160405180910390a45050565b600080610a6d836106b6565b9050806001600160a01b0316846001600160a01b03161480610a945750610a948185610966565b80610ab85750836001600160a01b0316610aad846103ce565b6001600160a01b0316145b949350505050565b826001600160a01b0316610ad3826106b6565b6001600160a01b031614610af95760405162461bcd60e51b815260040161046990611bba565b6001600160a01b038216610b5b5760405162461bcd60e51b8152602060048201526024808201527f4552433732313a207472616e7366657220746f20746865207a65726f206164646044820152637265737360e01b6064820152608401610469565b826001600160a01b0316610b6e826106b6565b6001600160a01b031614610b945760405162461bcd60e51b815260040161046990611bba565b600081815260046020908152604080832080546001600160a01b03199081169091556001600160a01b0387811680865260038552838620805460001901905590871680865283862080546001019055868652600290945282852080549092168417909155905184937fddf252ad1be2c89b69c2b068fc378daa952ba7f163c4a11628f55a4df523b3ef91a4505050565b600f54606090610c389060ff166001611c15565b600f805460ff191660ff929092169182179055600e549003610c5f57600f805460ff191690555b600f54600e805460009260ff16908110610c7b57610c7b611c2e565b90600052602060002001604051602001610c959190611c44565b6040516020818303038152906040529050600081604051602001610cb99190611cca565b60405160208183030381529060405290506000610cd46105cf565b604051602001610ce49190611e27565b60408051601f19818403018152828201825260068352651e17b9bb339f60d11b6020848101919091529151909350600091610d259186918691869101611ec2565b60408051601f198184030181529190529695505050505050565b60608151600003610d5e57505060408051602081019091526000815290565b60006040518060600160405280604081526020016120e76040913990506000600384516002610d8d9190611f05565b610d979190611f18565b610da2906004611f3a565b67ffffffffffffffff811115610dba57610dba61176d565b6040519080825280601f01601f191660200182016040528015610de4576020820181803683370190505b509050600182016020820185865187015b80821015610e50576003820191508151603f8160121c168501518453600184019350603f81600c1c168501518453600184019350603f8160061c168501518453600184019350603f8116850151845350600183019250610df5565b5050600386510660018114610e6c5760028114610e7f57610950565b603d6001830353603d6002830353610950565b603d6001830353509195945050505050565b6000828152600260205260409020546001600160a01b0316610f0c5760405162461bcd60e51b815260206004820152602e60248201527f45524337323155524953746f726167653a2055524920736574206f66206e6f6e60448201526d32bc34b9ba32b73a103a37b5b2b760911b6064820152608401610469565b600082815260066020526040902061050a8282611f51565b610875828260405180602001604052806000815250611147565b816001600160a01b0316836001600160a01b031603610f9f5760405162461bcd60e51b815260206004820152601960248201527f4552433732313a20617070726f766520746f2063616c6c6572000000000000006044820152606401610469565b6001600160a01b03838116600081815260056020908152604080832094871680845294825291829020805460ff191686151590811790915591519182527f17307eab39ab6107e8899845ad3d59bd9653f200f220920489ca2b5937696c31910160405180910390a3505050565b611017848484610ac0565b6110238484848461117a565b6105c95760405162461bcd60e51b81526004016104699061200b565b606061104a82610994565b6000828152600660205260408120805461106390611892565b80601f016020809104026020016040519081016040528092919081815260200182805461108f90611892565b80156110dc5780601f106110b1576101008083540402835291602001916110dc565b820191906000526020600020905b8154815290600101906020018083116110bf57829003601f168201915b5050505050905060006110fa60408051602081019091526000815290565b9050805160000361110c575092915050565b81511561113e57808260405160200161112692919061205d565b60405160208183030381529060405292505050919050565b610ab88461127b565b61115183836112ef565b61115e600084848461117a565b61050a5760405162461bcd60e51b81526004016104699061200b565b60006001600160a01b0384163b1561127057604051630a85bd0160e11b81526001600160a01b0385169063150b7a02906111be90339089908890889060040161208c565b6020604051808303816000875af19250505080156111f9575060408051601f3d908101601f191682019092526111f6918101906120c9565b60015b611256573d808015611227576040519150601f19603f3d011682016040523d82523d6000602084013e61122c565b606091505b50805160000361124e5760405162461bcd60e51b81526004016104699061200b565b805181602001fd5b6001600160e01b031916630a85bd0160e11b149050610ab8565b506001949350505050565b606061128682610994565b600061129d60408051602081019091526000815290565b905060008151116112bd57604051806020016040528060008152506112e8565b806112c78461147a565b6040516020016112d892919061205d565b6040516020818303038152906040525b9392505050565b6001600160a01b0382166113455760405162461bcd60e51b815260206004820181905260248201527f4552433732313a206d696e7420746f20746865207a65726f20616464726573736044820152606401610469565b6000818152600260205260409020546001600160a01b0316156113aa5760405162461bcd60e51b815260206004820152601c60248201527f4552433732313a20746f6b656e20616c7265616479206d696e746564000000006044820152606401610469565b6000818152600260205260409020546001600160a01b03161561140f5760405162461bcd60e51b815260206004820152601c60248201527f4552433732313a20746f6b656e20616c7265616479206d696e746564000000006044820152606401610469565b6001600160a01b038216600081815260036020908152604080832080546001019055848352600290915280822080546001600160a01b0319168417905551839291907fddf252ad1be2c89b69c2b068fc378daa952ba7f163c4a11628f55a4df523b3ef908290a45050565b606060006114878361150d565b600101905060008167ffffffffffffffff8111156114a7576114a761176d565b6040519080825280601f01601f1916602001820160405280156114d1576020820181803683370190505b5090508181016020015b600019016f181899199a1a9b1b9c1cb0b131b232b360811b600a86061a8153600a85049450846114db57509392505050565b60008072184f03e93ff9f4daa797ed6e38ed64bf6a1f0160401b831061154c5772184f03e93ff9f4daa797ed6e38ed64bf6a1f0160401b830492506040015b6d04ee2d6d415b85acef81000000008310611578576d04ee2d6d415b85acef8100000000830492506020015b662386f26fc10000831061159657662386f26fc10000830492506010015b6305f5e10083106115ae576305f5e100830492506008015b61271083106115c257612710830492506004015b606483106115d4576064830492506002015b600a83106103365760010192915050565b6001600160e01b03198116811461074457600080fd5b60006020828403121561160d57600080fd5b81356112e8816115e5565b60005b8381101561163357818101518382015260200161161b565b50506000910152565b60008151808452611654816020860160208601611618565b601f01601f19169290920160200192915050565b6020815260006112e8602083018461163c565b60006020828403121561168d57600080fd5b5035919050565b80356001600160a01b03811681146116ab57600080fd5b919050565b600080604083850312156116c357600080fd5b6116cc83611694565b946020939093013593505050565b6000806000606084860312156116ef57600080fd5b6116f884611694565b925061170660208501611694565b9150604084013590509250925092565b60006020828403121561172857600080fd5b6112e882611694565b6000806040838503121561174457600080fd5b61174d83611694565b91506020830135801515811461176257600080fd5b809150509250929050565b634e487b7160e01b600052604160045260246000fd5b6000806000806080858703121561179957600080fd5b6117a285611694565b93506117b060208601611694565b925060408501359150606085013567ffffffffffffffff808211156117d457600080fd5b818701915087601f8301126117e857600080fd5b8135818111156117fa576117fa61176d565b604051601f8201601f19908116603f011681019083821181831017156118225761182261176d565b816040528281528a602084870101111561183b57600080fd5b82602086016020830137600060208483010152809550505050505092959194509250565b6000806040838503121561187257600080fd5b61187b83611694565b915061188960208401611694565b90509250929050565b600181811c908216806118a657607f821691505b6020821081036118c657634e487b7160e01b600052602260045260246000fd5b50919050565b6020808252602d908201527f4552433732313a2063616c6c6572206973206e6f7420746f6b656e206f776e6560408201526c1c881bdc88185c1c1c9bdd9959609a1b606082015260800190565b7f7b226e616d65223a20225072696365204665656420535647222c00000000000081527f226465736372697074696f6e223a2022535647204e465473206261736564206f601a8201526e1b88185cdcd95d081c1c9a58d9488b608a1b603a8201527f22696d616765223a2022646174613a696d6167652f7376672b786d6c3b626173604982015263194d8d0b60e21b606982015281516000906119c381606d850160208701611618565b61227d60f01b606d939091019283015250606f01919050565b7f646174613a6170706c69636174696f6e2f6a736f6e3b6261736536342c000000815260008251611a1481601d850160208701611618565b91909101601d0192915050565b601f82111561050a57600081815260208120601f850160051c81016020861015611a485750805b601f850160051c820191505b81811015611a6757828155600101611a54565b505050505050565b818103611a7a575050565b611a848254611892565b67ffffffffffffffff811115611a9c57611a9c61176d565b611ab081611aaa8454611892565b84611a21565b6000601f821160018114611ae45760008315611acc5750848201545b600019600385901b1c1916600184901b178455611b49565b600085815260209020601f19841690600086815260209020845b83811015611b1e5782860154825560019586019590910190602001611afe565b5085831015611b3c5781850154600019600388901b60f8161c191681555b50505060018360011b0184555b5050505050565b805169ffffffffffffffffffff811681146116ab57600080fd5b600080600080600060a08688031215611b8257600080fd5b611b8b86611b50565b9450602086015193506040860151925060608601519150611bae60808701611b50565b90509295509295909350565b60208082526025908201527f4552433732313a207472616e736665722066726f6d20696e636f72726563742060408201526437bbb732b960d91b606082015260800190565b634e487b7160e01b600052601160045260246000fd5b60ff818116838216019081111561033657610336611bff565b634e487b7160e01b600052603260045260246000fd5b602360f81b81526000600160008454611c5c81611892565b8184168015611c725760018114611c8b57611cbe565b60ff198316878601528115158202870185019350611cbe565b8760005260208060002060005b84811015611cb35781548a8201890152908701908201611c98565b505050848288010193505b50919695505050505050565b7f3c73766720786d6c6e733d27687474703a2f2f7777772e77332e6f72672f323081527f30302f737667272076657273696f6e3d27312e312720786d6c6e733a786c696e60208201527f6b3d27687474703a2f2f7777772e77332e6f72672f313939392f786c696e6b2760408201527f20786d6c6e733a7376676a733d27687474703a2f2f7376676a732e636f6d2f7360608201527f76676a73272077696474683d2735303027206865696768743d2735303027207060808201527f72657365727665417370656374526174696f3d276e6f6e65272076696577426f60a08201527f783d273020302035303020353030273e203c726563742077696474683d27313060c08201527f302527206865696768743d2731303025272066696c6c3d27000000000000000060e082015260008251611e0c8160f8850160208701611618565b631390179f60e11b60f893909101928301525060fc01919050565b7f3c7465787420783d273530252720793d273530252720666f6e742d73697a653d81527f273132382720646f6d696e616e742d626173656c696e653d276d6964646c6527602082015275103a32bc3a16b0b731b437b91e93b6b4b2323632939f60511b604082015260008251611ea4816056850160208701611618565b661e17ba32bc3a1f60c91b6056939091019283015250605d01919050565b60008451611ed4818460208901611618565b845190830190611ee8818360208901611618565b8451910190611efb818360208801611618565b0195945050505050565b8082018082111561033657610336611bff565b600082611f3557634e487b7160e01b600052601260045260246000fd5b500490565b808202811582820484141761033657610336611bff565b815167ffffffffffffffff811115611f6b57611f6b61176d565b611f7981611aaa8454611892565b602080601f831160018114611fae5760008415611f965750858301515b600019600386901b1c1916600185901b178555611a67565b600085815260208120601f198616915b82811015611fdd57888601518255948401946001909101908401611fbe565b5085821015611ffb5787850151600019600388901b60f8161c191681555b5050505050600190811b01905550565b60208082526032908201527f4552433732313a207472616e7366657220746f206e6f6e20455243373231526560408201527131b2b4bb32b91034b6b83632b6b2b73a32b960711b606082015260800190565b6000835161206f818460208801611618565b835190830190612083818360208801611618565b01949350505050565b6001600160a01b03858116825284166020820152604081018390526080606082018190526000906120bf9083018461163c565b9695505050505050565b6000602082840312156120db57600080fd5b81516112e8816115e556fe4142434445464748494a4b4c4d4e4f505152535455565758595a6162636465666768696a6b6c6d6e6f707172737475767778797a303132333435363738392b2fa2646970667358221220e7b34b84ebf726684939166913d2ef9405b1b1e9d693548ab29fedda683b81bb64736f6c634300081300334552433732313a207472616e7366657220746f206e6f6e2045524337323152654142434445464748494a4b4c4d4e4f505152535455565758595a6162636465666768696a6b6c6d6e6f707172737475767778797a303132333435363738392b2f",
  "devdoc": {
    "events": {
      "Approval(address,address,uint256)": {
        "details": "Emitted when `owner` enables `approved` to manage the `tokenId` token."
      },
      "ApprovalForAll(address,address,bool)": {
        "details": "Emitted when `owner` enables or disables (`approved`) `operator` to manage all of its assets."
      },
      "Transfer(address,address,uint256)": {
        "details": "Emitted when `tokenId` token is transferred from `from` to `to`."
      }
    },
    "kind": "dev",
    "methods": {
      "approve(address,uint256)": {
        "details": "See {IERC721-approve}."
      },
      "balanceOf(address)": {
        "details": "See {IERC721-balanceOf}."
      },
      "getApproved(uint256)": {
        "details": "See {IERC721-getApproved}."
      },
      "isApprovedForAll(address,address)": {
        "details": "See {IERC721-isApprovedForAll}."
      },
      "name()": {
        "details": "See {IERC721Metadata-name}."
      },
      "ownerOf(uint256)": {
        "details": "See {IERC721-ownerOf}."
      },
      "safeTransferFrom(address,address,uint256)": {
        "details": "See {IERC721-safeTransferFrom}."
      },
      "safeTransferFrom(address,address,uint256,bytes)": {
        "details": "See {IERC721-safeTransferFrom}."
      },
      "setApprovalForAll(address,bool)": {
        "details": "See {IERC721-setApprovalForAll}."
      },
      "supportsInterface(bytes4)": {
        "details": "See {IERC165-supportsInterface}."
      },
      "symbol()": {
        "details": "See {IERC721Metadata-symbol}."
      },
      "transferFrom(address,address,uint256)": {
        "details": "See {IERC721-transferFrom}."
      }
    },
    "version": 1
  },
  "userdoc": {
    "kind": "user",
    "methods": {},
    "version": 1
  },
  "storageLayout": {
    "storage": [
      {
        "astId": 1104,
        "contract": "contracts/GamePriceSVG.sol:GamePriceSVG",
        "label": "_name",
        "offset": 0,
        "slot": "0",
        "type": "t_string_storage"
      },
      {
        "astId": 1106,
        "contract": "contracts/GamePriceSVG.sol:GamePriceSVG",
        "label": "_symbol",
        "offset": 0,
        "slot": "1",
        "type": "t_string_storage"
      },
      {
        "astId": 1110,
        "contract": "contracts/GamePriceSVG.sol:GamePriceSVG",
        "label": "_owners",
        "offset": 0,
        "slot": "2",
        "type": "t_mapping(t_uint256,t_address)"
      },
      {
        "astId": 1114,
        "contract": "contracts/GamePriceSVG.sol:GamePriceSVG",
        "label": "_balances",
        "offset": 0,
        "slot": "3",
        "type": "t_mapping(t_address,t_uint256)"
      },
      {
        "astId": 1118,
        "contract": "contracts/GamePriceSVG.sol:GamePriceSVG",
        "label": "_tokenApprovals",
        "offset": 0,
        "slot": "4",
        "type": "t_mapping(t_uint256,t_address)"
      },
      {
        "astId": 1124,
        "contract": "contracts/GamePriceSVG.sol:GamePriceSVG",
        "label": "_operatorApprovals",
        "offset": 0,
        "slot": "5",
        "type": "t_mapping(t_address,t_mapping(t_address,t_bool))"
      },
      {
        "astId": 2152,
        "contract": "contracts/GamePriceSVG.sol:GamePriceSVG",
        "label": "_tokenURIs",
        "offset": 0,
        "slot": "6",
        "type": "t_mapping(t_uint256,t_string_storage)"
      },
      {
        "astId": 3906,
        "contract": "contracts/GamePriceSVG.sol:GamePriceSVG",
        "label": "tokenIdCounter",
        "offset": 0,
        "slot": "7",
        "type": "t_struct(Counter)2696_storage"
      },
      {
        "astId": 3909,
        "contract": "contracts/GamePriceSVG.sol:GamePriceSVG",
        "label": "priceFeed",
        "offset": 0,
        "slot": "8",
        "type": "t_contract(AggregatorV3Interface)3886"
      },
      {
        "astId": 3912,
        "contract": "contracts/GamePriceSVG.sol:GamePriceSVG",
        "label": "lastPrice",
        "offset": 0,
        "slot": "9",
        "type": "t_uint256"
      },
      {
        "astId": 3915,
        "contract": "contracts/GamePriceSVG.sol:GamePriceSVG",
        "label": "priceIndicatorUp",
        "offset": 0,
        "slot": "10",
        "type": "t_string_storage"
      },
      {
        "astId": 3918,
        "contract": "contracts/GamePriceSVG.sol:GamePriceSVG",
        "label": "priceIndicatorDown",
        "offset": 0,
        "slot": "11",
        "type": "t_string_storage"
      },
      {
        "astId": 3921,
        "contract": "contracts/GamePriceSVG.sol:GamePriceSVG",
        "label": "priceIndicatorFlat",
        "offset": 0,
        "slot": "12",
        "type": "t_string_storage"
      },
      {
        "astId": 3923,
        "contract": "contracts/GamePriceSVG.sol:GamePriceSVG",
        "label": "priceIndicator",
        "offset": 0,
        "slot": "13",
        "type": "t_string_storage"
      },
      {
        "astId": 3934,
        "contract": "contracts/GamePriceSVG.sol:GamePriceSVG",
        "label": "colors",
        "offset": 0,
        "slot": "14",
        "type": "t_array(t_string_storage)dyn_storage"
      },
      {
        "astId": 3937,
        "contract": "contracts/GamePriceSVG.sol:GamePriceSVG",
        "label": "actualColor",
        "offset": 0,
        "slot": "15",
        "type": "t_uint8"
      },
      {
        "astId": 3941,
        "contract": "contracts/GamePriceSVG.sol:GamePriceSVG",
        "label": "ethuscAddress",
        "offset": 1,
        "slot": "15",
        "type": "t_address"
      }
    ],
    "types": {
      "t_address": {
        "encoding": "inplace",
        "label": "address",
        "numberOfBytes": "20"
      },
      "t_array(t_string_storage)dyn_storage": {
        "base": "t_string_storage",
        "encoding": "dynamic_array",
        "label": "string[]",
        "numberOfBytes": "32"
      },
      "t_bool": {
        "encoding": "inplace",
        "label": "bool",
        "numberOfBytes": "1"
      },
      "t_contract(AggregatorV3Interface)3886": {
        "encoding": "inplace",
        "label": "contract AggregatorV3Interface",
        "numberOfBytes": "20"
      },
      "t_mapping(t_address,t_bool)": {
        "encoding": "mapping",
        "key": "t_address",
        "label": "mapping(address => bool)",
        "numberOfBytes": "32",
        "value": "t_bool"
      },
      "t_mapping(t_address,t_mapping(t_address,t_bool))": {
        "encoding": "mapping",
        "key": "t_address",
        "label": "mapping(address => mapping(address => bool))",
        "numberOfBytes": "32",
        "value": "t_mapping(t_address,t_bool)"
      },
      "t_mapping(t_address,t_uint256)": {
        "encoding": "mapping",
        "key": "t_address",
        "label": "mapping(address => uint256)",
        "numberOfBytes": "32",
        "value": "t_uint256"
      },
      "t_mapping(t_uint256,t_address)": {
        "encoding": "mapping",
        "key": "t_uint256",
        "label": "mapping(uint256 => address)",
        "numberOfBytes": "32",
        "value": "t_address"
      },
      "t_mapping(t_uint256,t_string_storage)": {
        "encoding": "mapping",
        "key": "t_uint256",
        "label": "mapping(uint256 => string)",
        "numberOfBytes": "32",
        "value": "t_string_storage"
      },
      "t_string_storage": {
        "encoding": "bytes",
        "label": "string",
        "numberOfBytes": "32"
      },
      "t_struct(Counter)2696_storage": {
        "encoding": "inplace",
        "label": "struct Counters.Counter",
        "members": [
          {
            "astId": 2695,
            "contract": "contracts/GamePriceSVG.sol:GamePriceSVG",
            "label": "_value",
            "offset": 0,
            "slot": "0",
            "type": "t_uint256"
          }
        ],
        "numberOfBytes": "32"
      },
      "t_uint256": {
        "encoding": "inplace",
        "label": "uint256",
        "numberOfBytes": "32"
      },
      "t_uint8": {
        "encoding": "inplace",
        "label": "uint8",
        "numberOfBytes": "1"
      }
    }
  }
}