{
  "address": "0x78eB9dBE70cbc99D725d5F5d0028846247881928",
  "abi": [
    {
      "inputs": [
        {
          "internalType": "uint256",
          "name": "subscriptionId",
          "type": "uint256"
        }
      ],
      "stateMutability": "nonpayable",
      "type": "constructor"
    },
    {
      "inputs": [
        {
          "internalType": "address",
          "name": "have",
          "type": "address"
        },
        {
          "internalType": "address",
          "name": "want",
          "type": "address"
        }
      ],
      "name": "OnlyCoordinatorCanFulfill",
      "type": "error"
    },
    {
      "inputs": [
        {
          "internalType": "address",
          "name": "have",
          "type": "address"
        },
        {
          "internalType": "address",
          "name": "owner",
          "type": "address"
        },
        {
          "internalType": "address",
          "name": "coordinator",
          "type": "address"
        }
      ],
      "name": "OnlyOwnerOrCoordinator",
      "type": "error"
    },
    {
      "inputs": [],
      "name": "ZeroAddress",
      "type": "error"
    },
    {
      "anonymous": false,
      "inputs": [
        {
          "indexed": false,
          "internalType": "address",
          "name": "vrfCoordinator",
          "type": "address"
        }
      ],
      "name": "CoordinatorSet",
      "type": "event"
    },
    {
      "anonymous": false,
      "inputs": [
        {
          "indexed": true,
          "internalType": "address",
          "name": "from",
          "type": "address"
        },
        {
          "indexed": true,
          "internalType": "address",
          "name": "to",
          "type": "address"
        }
      ],
      "name": "OwnershipTransferRequested",
      "type": "event"
    },
    {
      "anonymous": false,
      "inputs": [
        {
          "indexed": true,
          "internalType": "address",
          "name": "from",
          "type": "address"
        },
        {
          "indexed": true,
          "internalType": "address",
          "name": "to",
          "type": "address"
        }
      ],
      "name": "OwnershipTransferred",
      "type": "event"
    },
    {
      "anonymous": false,
      "inputs": [
        {
          "indexed": false,
          "internalType": "uint256",
          "name": "requestId",
          "type": "uint256"
        },
        {
          "indexed": false,
          "internalType": "uint256[]",
          "name": "randomWords",
          "type": "uint256[]"
        }
      ],
      "name": "RequestFulfilled",
      "type": "event"
    },
    {
      "anonymous": false,
      "inputs": [
        {
          "indexed": false,
          "internalType": "uint256",
          "name": "requestId",
          "type": "uint256"
        },
        {
          "indexed": false,
          "internalType": "uint32",
          "name": "numWords",
          "type": "uint32"
        }
      ],
      "name": "RequestSent",
      "type": "event"
    },
    {
      "inputs": [],
      "name": "acceptOwnership",
      "outputs": [],
      "stateMutability": "nonpayable",
      "type": "function"
    },
    {
      "inputs": [
        {
          "internalType": "uint256",
          "name": "",
          "type": "uint256"
        }
      ],
      "name": "lastRandomWords",
      "outputs": [
        {
          "internalType": "uint256",
          "name": "",
          "type": "uint256"
        }
      ],
      "stateMutability": "view",
      "type": "function"
    },
    {
      "inputs": [],
      "name": "lastRequestId",
      "outputs": [
        {
          "internalType": "uint256",
          "name": "",
          "type": "uint256"
        }
      ],
      "stateMutability": "view",
      "type": "function"
    },
    {
      "inputs": [],
      "name": "listNumbers",
      "outputs": [
        {
          "internalType": "uint256[]",
          "name": "",
          "type": "uint256[]"
        }
      ],
      "stateMutability": "view",
      "type": "function"
    },
    {
      "inputs": [],
      "name": "maximum",
      "outputs": [
        {
          "internalType": "uint256",
          "name": "",
          "type": "uint256"
        }
      ],
      "stateMutability": "view",
      "type": "function"
    },
    {
      "inputs": [],
      "name": "owner",
      "outputs": [
        {
          "internalType": "address",
          "name": "",
          "type": "address"
        }
      ],
      "stateMutability": "view",
      "type": "function"
    },
    {
      "inputs": [
        {
          "internalType": "uint256",
          "name": "",
          "type": "uint256"
        }
      ],
      "name": "raffleResult",
      "outputs": [
        {
          "internalType": "uint256",
          "name": "",
          "type": "uint256"
        }
      ],
      "stateMutability": "view",
      "type": "function"
    },
    {
      "inputs": [
        {
          "internalType": "uint256",
          "name": "requestId",
          "type": "uint256"
        },
        {
          "internalType": "uint256[]",
          "name": "randomWords",
          "type": "uint256[]"
        }
      ],
      "name": "rawFulfillRandomWords",
      "outputs": [],
      "stateMutability": "nonpayable",
      "type": "function"
    },
    {
      "inputs": [
        {
          "internalType": "uint256",
          "name": "",
          "type": "uint256"
        }
      ],
      "name": "requestIds",
      "outputs": [
        {
          "internalType": "uint256",
          "name": "",
          "type": "uint256"
        }
      ],
      "stateMutability": "view",
      "type": "function"
    },
    {
      "inputs": [
        {
          "internalType": "uint32",
          "name": "_amount",
          "type": "uint32"
        },
        {
          "internalType": "uint256",
          "name": "_maximum",
          "type": "uint256"
        }
      ],
      "name": "run",
      "outputs": [
        {
          "internalType": "uint256",
          "name": "requestId",
          "type": "uint256"
        }
      ],
      "stateMutability": "nonpayable",
      "type": "function"
    },
    {
      "inputs": [
        {
          "internalType": "uint256",
          "name": "",
          "type": "uint256"
        }
      ],
      "name": "s_requests",
      "outputs": [
        {
          "internalType": "bool",
          "name": "fulfilled",
          "type": "bool"
        },
        {
          "internalType": "bool",
          "name": "exists",
          "type": "bool"
        }
      ],
      "stateMutability": "view",
      "type": "function"
    },
    {
      "inputs": [],
      "name": "s_subscriptionId",
      "outputs": [
        {
          "internalType": "uint256",
          "name": "",
          "type": "uint256"
        }
      ],
      "stateMutability": "view",
      "type": "function"
    },
    {
      "inputs": [],
      "name": "s_vrfCoordinator",
      "outputs": [
        {
          "internalType": "contract IVRFCoordinatorV2Plus",
          "name": "",
          "type": "address"
        }
      ],
      "stateMutability": "view",
      "type": "function"
    },
    {
      "inputs": [
        {
          "internalType": "address",
          "name": "_vrfCoordinator",
          "type": "address"
        }
      ],
      "name": "setCoordinator",
      "outputs": [],
      "stateMutability": "nonpayable",
      "type": "function"
    },
    {
      "inputs": [
        {
          "internalType": "address",
          "name": "to",
          "type": "address"
        }
      ],
      "name": "transferOwnership",
      "outputs": [],
      "stateMutability": "nonpayable",
      "type": "function"
    }
  ],
  "transactionHash": "0xfd4d337967c4f0b05e18db3553404ac4011589da67f1a729062b93e8e699a30a",
  "args": [
    "41504703584227333385498388787649132955408048185101517223144338074195101474463"
  ],
  "numDeployments": 1,
  "solcInputHash": "99cd8baca605d20cb91cb824408e113e",
  "bytecode": "0x6080604052600580546001600160a01b031916738103b0a8a00be2ddc778e6e7eaa21791cd3646251790557f474e34a077df58807dbe9c96d3c009b23b3c6d0cce433e59bbf5b34f823bc56c6006556007805466010003002625a06001600160501b03199091161790556064600d5534801561007a57600080fd5b50604051610f1d380380610f1d83398101604081905261009991610235565b6005546001600160a01b031633806000816100fb5760405162461bcd60e51b815260206004820152601860248201527f43616e6e6f7420736574206f776e657220746f207a65726f000000000000000060448201526064015b60405180910390fd5b600080546001600160a01b0319166001600160a01b038481169190911790915581161561012b5761012b8161018c565b5050506001600160a01b0381166101555760405163d92e233d60e01b815260040160405180910390fd5b600280546001600160a01b03199081166001600160a01b039384161790915560055460048054919093169116179055600b5561024e565b336001600160a01b038216036101e45760405162461bcd60e51b815260206004820152601760248201527f43616e6e6f74207472616e7366657220746f2073656c6600000000000000000060448201526064016100f2565b600180546001600160a01b0319166001600160a01b0383811691821790925560008054604051929316917fed8889f560326eb138920d842192f0eb3dd22b4f139c87a2c57538e05bae12789190a350565b60006020828403121561024757600080fd5b5051919050565b610cc08061025d6000396000f3fe608060405234801561001057600080fd5b50600436106100f55760003560e01c80638ea9811711610097578063a4de9ab411610066578063a4de9ab414610203578063c6b0f15b14610216578063f2fde38b1461022b578063fc2a88c31461023e57600080fd5b80638ea9811714610187578063900fc8691461019a5780639eccacf6146101ad578063a168fa89146101c057600080fd5b806379ba5097116100d357806379ba50971461013e5780638796ba8c146101465780638ac00021146101595780638da5cb5b1461016257600080fd5b80631fe543e3146100fa57806352342f131461010f578063723dfc9e1461012b575b600080fd5b61010d610108366004610a1a565b610247565b005b610118600d5481565b6040519081526020015b60405180910390f35b610118610139366004610a99565b61029c565b61010d6102bd565b610118610154366004610a99565b610367565b610118600b5481565b6000546001600160a01b03165b6040516001600160a01b039091168152602001610122565b61010d610195366004610ab2565b610377565b6101186101a8366004610a99565b610469565b60025461016f906001600160a01b031681565b6101ec6101ce366004610a99565b60036020526000908152604090205460ff8082169161010090041682565b604080519215158352901515602083015201610122565b610118610211366004610ae2565b610479565b61021e61067c565b6040516101229190610b17565b61010d610239366004610ab2565b6106d4565b61011860095481565b6002546001600160a01b0316331461028c5760025460405163073e64fd60e21b81523360048201526001600160a01b0390911660248201526044015b60405180910390fd5b6102978383836106e8565b505050565b600c81815481106102ac57600080fd5b600091825260209091200154905081565b6001546001600160a01b031633146103105760405162461bcd60e51b815260206004820152601660248201527526bab9ba10313290383937b837b9b2b21037bbb732b960511b6044820152606401610283565b60008054336001600160a01b0319808316821784556001805490911690556040516001600160a01b0390921692909183917f8be0079c531659141344cd1fd0a4f28419497f9722a3daafe3b4186f6b6457e091a350565b600881815481106102ac57600080fd5b6000546001600160a01b0316331480159061039d57506002546001600160a01b03163314155b156103ee57336103b56000546001600160a01b031690565b60025460405163061db9c160e01b81526001600160a01b0393841660048201529183166024830152919091166044820152606401610283565b6001600160a01b0381166104155760405163d92e233d60e01b815260040160405180910390fd5b600280546001600160a01b0319166001600160a01b0383169081179091556040519081527fd1a6a14209a385a964d036e404cb5cfb71f4000cdb03c9366292430787261be69060200160405180910390a150565b600a81815481106102ac57600080fd5b6007805469ffffffff000000000000198116600160301b63ffffffff868116820292831794859055600d8690556004546040805160c0810182526006548152600b54602080830191909152640100000000890461ffff168284015296841695841695909517606086015292909504166080830152805192830190526000808352926001600160a01b031691639b1c385e919060a082019061051990610810565b8152506040518263ffffffff1660e01b81526004016105389190610b5b565b6020604051808303816000875af1158015610557573d6000803e3d6000fd5b505050506040513d601f19601f8201168201806040525081019061057b9190610bf7565b6040805160608101825260008082526001602080840182815285518481528083018752858701908152878552600383529590932084518154945161ffff1990951690151561ff001916176101009415159490940293909317835593518051959650929491936105f0939185019291019061097f565b5050600880546001810182556000919091527ff3f7a9fe364faab93b216da50a3214154f22a0a2b415b23a84c8169e8b636ee30182905550600981905560075460408051838152600160301b90920463ffffffff1660208301527fcc58b13ad3eab50626c6a6300b1d139cd6ebb1688a7cced9461c2f7e762665ee910160405180910390a15b92915050565b6060600c8054806020026020016040519081016040528092919081815260200182805480156106ca57602002820191906000526020600020905b8154815260200190600101908083116106b6575b5050505050905090565b6106dc610881565b6106e5816108d6565b50565b600083815260036020526040902054610100900460ff1661073f5760405162461bcd60e51b81526020600482015260116024820152701c995c5d595cdd081b9bdd08199bdd5b99607a1b6044820152606401610283565b6000838152600360205260409020805460ff191660019081178255610766910183836109ca565b50610773600a83836109ca565b506000805b600754600160301b900463ffffffff1681101561080957600d548484838181106107a4576107a4610c10565b905060200201356107b59190610c26565b6107c0906001610c5e565b600c80546001810182556000919091527fdf6966c971051c3d54ec59162606531493a51404a002842f56009d7e5cf4a8c70181905591508061080181610c71565b915050610778565b5050505050565b60607f92fd13387c7fe7befbc38d303d6468778fb9731bc4583f17d92989c6fcfdeaaa8260405160240161084991511515815260200190565b60408051601f198184030181529190526020810180516001600160e01b03166001600160e01b03199093169290921790915292915050565b6000546001600160a01b031633146108d45760405162461bcd60e51b815260206004820152601660248201527527b7363c9031b0b63630b1363290313c9037bbb732b960511b6044820152606401610283565b565b336001600160a01b0382160361092e5760405162461bcd60e51b815260206004820152601760248201527f43616e6e6f74207472616e7366657220746f2073656c660000000000000000006044820152606401610283565b600180546001600160a01b0319166001600160a01b0383811691821790925560008054604051929316917fed8889f560326eb138920d842192f0eb3dd22b4f139c87a2c57538e05bae12789190a350565b8280548282559060005260206000209081019282156109ba579160200282015b828111156109ba57825182559160200191906001019061099f565b506109c6929150610a05565b5090565b8280548282559060005260206000209081019282156109ba579160200282015b828111156109ba5782358255916020019190600101906109ea565b5b808211156109c65760008155600101610a06565b600080600060408486031215610a2f57600080fd5b83359250602084013567ffffffffffffffff80821115610a4e57600080fd5b818601915086601f830112610a6257600080fd5b813581811115610a7157600080fd5b8760208260051b8501011115610a8657600080fd5b6020830194508093505050509250925092565b600060208284031215610aab57600080fd5b5035919050565b600060208284031215610ac457600080fd5b81356001600160a01b0381168114610adb57600080fd5b9392505050565b60008060408385031215610af557600080fd5b823563ffffffff81168114610b0957600080fd5b946020939093013593505050565b6020808252825182820181905260009190848201906040850190845b81811015610b4f57835183529284019291840191600101610b33565b50909695505050505050565b6000602080835283518184015280840151604084015261ffff6040850151166060840152606084015163ffffffff80821660808601528060808701511660a0860152505060a084015160c08085015280518060e086015260005b81811015610bd25782810184015186820161010001528301610bb5565b506101009250600083828701015282601f19601f830116860101935050505092915050565b600060208284031215610c0957600080fd5b5051919050565b634e487b7160e01b600052603260045260246000fd5b600082610c4357634e487b7160e01b600052601260045260246000fd5b500690565b634e487b7160e01b600052601160045260246000fd5b8082018082111561067657610676610c48565b600060018201610c8357610c83610c48565b506001019056fea2646970667358221220b2bf170c164c9155d6667f39fbb70ae6c9fb08f5f6ae378e869c17a5db2cf02f64736f6c63430008130033",
  "devdoc": {
    "kind": "dev",
    "methods": {},
    "version": 1
  },
  "userdoc": {
    "kind": "user",
    "methods": {
      "acceptOwnership()": {
        "notice": "Allows an ownership transfer to be completed by the recipient."
      },
      "owner()": {
        "notice": "Get the current owner"
      },
      "setCoordinator(address)": {
        "notice": "Sets the VRF Coordinator addressThis method should only be callable by the coordinator or contract owner"
      },
      "transferOwnership(address)": {
        "notice": "Allows an owner to begin transferring ownership to a new address."
      }
    },
    "version": 1
  },
  "storageLayout": {
    "storage": [
      {
        "astId": 29,
        "contract": "contracts/RandomGenerator.sol:RandomGenerator",
        "label": "s_owner",
        "offset": 0,
        "slot": "0",
        "type": "t_address"
      },
      {
        "astId": 31,
        "contract": "contracts/RandomGenerator.sol:RandomGenerator",
        "label": "s_pendingOwner",
        "offset": 0,
        "slot": "1",
        "type": "t_address"
      },
      {
        "astId": 231,
        "contract": "contracts/RandomGenerator.sol:RandomGenerator",
        "label": "s_vrfCoordinator",
        "offset": 0,
        "slot": "2",
        "type": "t_contract(IVRFCoordinatorV2Plus)380"
      },
      {
        "astId": 561,
        "contract": "contracts/RandomGenerator.sol:RandomGenerator",
        "label": "s_requests",
        "offset": 0,
        "slot": "3",
        "type": "t_mapping(t_uint256,t_struct(RequestStatus)556_storage)"
      },
      {
        "astId": 564,
        "contract": "contracts/RandomGenerator.sol:RandomGenerator",
        "label": "COORDINATOR",
        "offset": 0,
        "slot": "4",
        "type": "t_contract(IVRFCoordinatorV2Plus)380"
      },
      {
        "astId": 567,
        "contract": "contracts/RandomGenerator.sol:RandomGenerator",
        "label": "vrfCoordinator",
        "offset": 0,
        "slot": "5",
        "type": "t_address"
      },
      {
        "astId": 570,
        "contract": "contracts/RandomGenerator.sol:RandomGenerator",
        "label": "keyHash",
        "offset": 0,
        "slot": "6",
        "type": "t_bytes32"
      },
      {
        "astId": 573,
        "contract": "contracts/RandomGenerator.sol:RandomGenerator",
        "label": "callbackGasLimit",
        "offset": 0,
        "slot": "7",
        "type": "t_uint32"
      },
      {
        "astId": 576,
        "contract": "contracts/RandomGenerator.sol:RandomGenerator",
        "label": "requestConfirmations",
        "offset": 4,
        "slot": "7",
        "type": "t_uint16"
      },
      {
        "astId": 579,
        "contract": "contracts/RandomGenerator.sol:RandomGenerator",
        "label": "numWords",
        "offset": 6,
        "slot": "7",
        "type": "t_uint32"
      },
      {
        "astId": 582,
        "contract": "contracts/RandomGenerator.sol:RandomGenerator",
        "label": "requestIds",
        "offset": 0,
        "slot": "8",
        "type": "t_array(t_uint256)dyn_storage"
      },
      {
        "astId": 584,
        "contract": "contracts/RandomGenerator.sol:RandomGenerator",
        "label": "lastRequestId",
        "offset": 0,
        "slot": "9",
        "type": "t_uint256"
      },
      {
        "astId": 587,
        "contract": "contracts/RandomGenerator.sol:RandomGenerator",
        "label": "lastRandomWords",
        "offset": 0,
        "slot": "10",
        "type": "t_array(t_uint256)dyn_storage"
      },
      {
        "astId": 589,
        "contract": "contracts/RandomGenerator.sol:RandomGenerator",
        "label": "s_subscriptionId",
        "offset": 0,
        "slot": "11",
        "type": "t_uint256"
      },
      {
        "astId": 592,
        "contract": "contracts/RandomGenerator.sol:RandomGenerator",
        "label": "raffleResult",
        "offset": 0,
        "slot": "12",
        "type": "t_array(t_uint256)dyn_storage"
      },
      {
        "astId": 595,
        "contract": "contracts/RandomGenerator.sol:RandomGenerator",
        "label": "maximum",
        "offset": 0,
        "slot": "13",
        "type": "t_uint256"
      }
    ],
    "types": {
      "t_address": {
        "encoding": "inplace",
        "label": "address",
        "numberOfBytes": "20"
      },
      "t_array(t_uint256)dyn_storage": {
        "base": "t_uint256",
        "encoding": "dynamic_array",
        "label": "uint256[]",
        "numberOfBytes": "32"
      },
      "t_bool": {
        "encoding": "inplace",
        "label": "bool",
        "numberOfBytes": "1"
      },
      "t_bytes32": {
        "encoding": "inplace",
        "label": "bytes32",
        "numberOfBytes": "32"
      },
      "t_contract(IVRFCoordinatorV2Plus)380": {
        "encoding": "inplace",
        "label": "contract IVRFCoordinatorV2Plus",
        "numberOfBytes": "20"
      },
      "t_mapping(t_uint256,t_struct(RequestStatus)556_storage)": {
        "encoding": "mapping",
        "key": "t_uint256",
        "label": "mapping(uint256 => struct RandomGenerator.RequestStatus)",
        "numberOfBytes": "32",
        "value": "t_struct(RequestStatus)556_storage"
      },
      "t_struct(RequestStatus)556_storage": {
        "encoding": "inplace",
        "label": "struct RandomGenerator.RequestStatus",
        "members": [
          {
            "astId": 550,
            "contract": "contracts/RandomGenerator.sol:RandomGenerator",
            "label": "fulfilled",
            "offset": 0,
            "slot": "0",
            "type": "t_bool"
          },
          {
            "astId": 552,
            "contract": "contracts/RandomGenerator.sol:RandomGenerator",
            "label": "exists",
            "offset": 1,
            "slot": "0",
            "type": "t_bool"
          },
          {
            "astId": 555,
            "contract": "contracts/RandomGenerator.sol:RandomGenerator",
            "label": "randomWords",
            "offset": 0,
            "slot": "1",
            "type": "t_array(t_uint256)dyn_storage"
          }
        ],
        "numberOfBytes": "64"
      },
      "t_uint16": {
        "encoding": "inplace",
        "label": "uint16",
        "numberOfBytes": "2"
      },
      "t_uint256": {
        "encoding": "inplace",
        "label": "uint256",
        "numberOfBytes": "32"
      },
      "t_uint32": {
        "encoding": "inplace",
        "label": "uint32",
        "numberOfBytes": "4"
      }
    }
  }
}